:10000000E0490020318B00002D8B00002D8B00007B
:1000100000000000000000000000000000000000E0
:100020000000000000000000000000002D8B000018
:1000300000000000000000002D8B00002D8B000050
:100040002D8B00002D8B000039580000F53E00007C
:10005000757300002D8B000089110000ED5E00001B
:100060002D8B00001971000029710000397100000A
:10007000497100005971000069710000F11500001C
:100080000116000011160000C5480000D548000008
:10009000E54800000000000000000000C50E000060
:1000A00031740000E11000002D8B00007971000018
:1000B0000000000010B5064C2378002B07D1054B3B
:1000C000002B02D0044800E000BF0123237010BDC4
:1000D0007001002000000000A4C60000084B10B50D
:1000E000002B03D00749084800E000BF0748036819
:1000F000002B00D110BD064B002BFBD09847F9E731
:100100000000000074010020A4C600002CFF0300C2
:100110000000000010B54022044B5A61044B984780
:10012000044B18600122044B1A6010BD00440041CA
:10013000F52B0000CC0D0020C80D002070B5314B10
:100140001A680124224030490A60806919684A1CF3
:100150001A604A00511849022C4A5218C021C9009D
:100160008C46624482601A6814401C60284B1B7ED7
:100170009B0711D5264B5B7E5BB2002B0CDB244B1F
:100180001A6924490A401A611A7E02210A431A7622
:100190001A7B01210A431A731F48204B98470528F0
:1001A00028D01F4B98471F4B1860174B1C681868C6
:1001B0001D4B9847620012195202144B9A18C02323
:1001C000DB00D618194C1A4D236821685B004900E2
:1001D0009B5A495B5B1A1BB2038043800632043092
:1001E0009642F1D1084B1868124B98470122124BE6
:1001F0001A6070BD084C2000104B98472000074B38
:100200009847CEE7BC0D0020C00D0020B0010020B3
:1002100000400042FFFF0FFF18110020951300005F
:10022000F52B0000B40D0020892A0000C40D002029
:1002300000000020952A0000D00D00201D140000B1
:10024000F0B5DE4657464E464546E0B58BB00391C5
:100250009446002857D0002A57D00026002704963D
:10026000059706960797089609970F00013F0FD349
:1002700004A9861D0022835E5B431C00DD170A680B
:100280004B6812196B410CC10230B042F2D1EDE75C
:1002900004AB984666460C2363449A461C4B9B4627
:1002A0001C4B99464446039A002320686168D8474E
:1002B00003C4194B9847194B9847071C18493068D5
:1002C000C847184B984700900191381C154B984728
:1002D000154F164A164BB84702000B0000980199BB
:1002E000144DA8470022FF239B05B847124B98479F
:1002F00001C6B245D7D100200BB03CBC9046994610
:10030000A246AB46F0BD0220F6E70220F4E7C04665
:1003100039930000C99C0000FD930000FD8D000092
:100320000000E040C9BB0000C5AF000080004000F5
:100330002000003F3DA300006DBC0000084B1B687F
:10034000002B0AD00022064B1A60064B1B6858008F
:10035000C0184002044B181870470020FCE7C04644
:10036000D00D0020C00D0020B0010020F0B5C64621
:1003700000B584B01F4B9847002839D00023019363
:1003800002930393C023DB00C51801AC02E00630E2
:1003900085420CD00100002300268A5F1E59B44616
:1003A00062441A51023104330C2BF5D1EFE70021DE
:1003B000114C01AAFF260F2398464800075B3FB265
:1003C0008B009D58EB1733405B191B123D01EF1B4F
:1003D000DB19DF1745462F40FB181B111BB20353D7
:1003E00001310329E9D1002004B004BC9046F0BDDE
:1003F0000520F9E73D030000C010002000487047C9
:100400000C110020022801D8024B1860014B18681B
:100410007047C046C40D002010B590B003AA002359
:100420001370937000219380138151709172D17277
:100430001173917351731174536193611177136246
:1004400053621385938520339371224B5385224C3D
:1004500022492000224B9847226801AB19794B1E94
:100460009941090101ABDB78002B01D0202319430E
:1004700080204000084301AB1B78002B02D088206D
:100480004001084301AB5B78002B02D080239B0125
:100490001843538901A949790B4303439BB2538104
:1004A000D37B5BB2002BFBDB138802210B43138051
:1004B00003AB588D0B4B98470B490C4B98470C4B93
:1004C00098470C4B18600C4B98470C4B186010B0B9
:1004D00010BDC046E703000034110020002C00428C
:1004E0002D490000B1A200000AD7A33CC99C00001E
:1004F000CD930000B00D0020F52B0000B40D0020BE
:1005000010B582B004006846074B984727236A4617
:100510005370253B93700023137069462000034BF2
:10052000984702B010BDC0463D1200004D120000B9
:1005300000B587B001226B461A70002369464B70E4
:100540008B704A718B71CB710593CA700B71C0238C
:100550009B000B81064B1B681A330393054BC0228B
:10056000D200944663440493034B984707B000BD00
:1005700050110020B0010020D114000070B50F4CC4
:1005800020000F4B98470F4D28000F4B984729002C
:1005900020000E4B98470E4BA3600220227C0243A2
:1005A000227422780B498B5C03438B5420000A4B46
:1005B00098470A4B98470A4B186070BD18110020E5
:1005C00001050000D0100020310500007915000061
:1005D0003D010000400E002095130000F52B0000A7
:1005E000B00D002010B58CB06846304B9847032101
:1005F0006B46197000236A46537001226846C27424
:10060000029343800233C3750373802040006C461D
:10061000E08100202071237463742A33E154013B8C
:100620000021E154A2742A23E254214C6A4621009D
:100630002048214B9847A3787022934320221343EC
:10064000A370A3780F22934302221343A3701B4B82
:100650005B781B071B0F032B05DD164B1A6893787D
:1006600070218B439370134B1A68537E5BB2002B3F
:10067000FBDB80210904124B19600F23937513765D
:10068000137802210B4313700A4B1A68537E5BB236
:10069000002BFBDB062200210A480B4CA0470C2252
:1006A00000210A48A0470CB010BDC046570A000000
:1006B00000400042501100209D0A00001820004117
:1006C00000E100E0C0100020FFBD00000C11002080
:1006D00030B583B001AC2000094B98473423A37098
:1006E0000023237002226270E370064D210028006F
:1006F000054B984717212800044B984703B030BD9D
:10070000D536000004110020E536000095370000C2
:1007100000B583B068460A4B984703236A46D370F6
:100720003D3313703F3B5370137193700549064876
:10073000064B9847064B9847064B186003B000BD20
:100740008D0F000000480042E0100020A10F0000C3
:10075000F52B0000CC0D002010B5074C0021200027
:10076000064B98472000064B984780221202002132
:100770002000044B984710BDE0100020AD10000091
:1007800071100000B910000070B588B007AA0025EC
:100790001570557003239370244E25493000254B66
:1007A000984701AC2570012323720495A022D20042
:1007B00062828022520122821022227510326275DA
:1007C0008022520402926A4655709370D57013705D
:1007D00069460520184B9847220000213000174B2E
:1007E00098473268537A5BB2002BFBDB1369012513
:1007F0002B4313610D4C002211492000114B9847E7
:10080000637E01221343637623685D718022520464
:100810000D4B1A602268537A5BB2002BFBDB137816
:1008200002210B43137008B070BDC0468C0100203C
:10083000004400427D090000CD8A0000110A00003A
:1008400015010000C973000000E100E0012303402E
:10085000034A51789B013F2008401843507070476D
:1008600000480042022802D8C0B2014B58707047BD
:1008700000400042014B18607047C046B80D002090
:10088000064B1A78064B4D215A5402315B5CDB074C
:1008900003D401239340024A1361704718110020CA
:1008A0000048004110B5264B1C68264B98470100B4
:1008B0002000254B9847254B1B6898420AD8244BAB
:1008C0001B68002B0DD0234B9847234B1B68002B34
:1008D0000FD110BD214B98471A4B9847184B186001
:1008E000EDE71F4B98471F4A802149001E4B984750
:1008F000EBE71E4B1C68134B984701002000124B7E
:1009000098471B4B1B689842E3D94022194B9A61C8
:10091000114B1B68022B08D80F4A13680133136070
:10092000084B9847114B1860D3E70B4B1B68092BFA
:10093000F6D8114A0E4B1A600022074B1A60EFE7F7
:10094000B40D0020F52B0000012C0000B00D00209C
:10095000B80D00206D030000C80D002081080000C4
:100960003D0300000C11002041020000CC0D0020CE
:1009700008000020004400410F270000F0B5C646E3
:1009800000B582B0040015000160002201AB1A70AE
:100990001A4B994219D000236360A360E36023617E
:1009A000636123766376164B1C6021682B785A1E90
:1009B00093419A004B7A5BB2002BFBDBD2B20A70F8
:1009C000002002B004BC9046F0BD0E4A116A80239C
:1009D0009B020B43136201AE6B78337031001F2012
:1009E000094B984698471F20084FB847AB7833709B
:1009F00031002020C0472020B847CCE70044004207
:100A0000D429002000040040D58900004989000055
:100A100070B504685368107A1D00002802D0802544
:100A20002D031D431078537D1843138A568A334390
:100A30001843D36818432843637A5BB2002BFBDB6F
:100A40000B1D9B001851137D013BDBB26418203451
:100A50002370002070BD10B5002200230270427088
:100A600000214280017103760262C26182600373D9
:100A7000C0246401C481037443748374C374037514
:100A80002A24035543758375063C0355C2840285A9
:100A9000C1752B23C1540133C15410BDF0B5D646E6
:100AA0004F464646C0B596B0070016000160C64ADC
:100AB000106A80235B02034313620B780520DB0777
:100AC00005D516B01CBC90469946A246F0BD0B78E1
:100AD00017309B07F5D473783B71002B04D1BB4AC8
:100AE000136C04210B4313640023BB60FB603B6168
:100AF000BB76FB763B833B77B54B1F602A23F35CC9
:100B0000002B05D1337D002B02D101337B7701E02F
:100B100000237B773B68984633786A4613706946B2
:100B20001E20AC4B98471E20AB4B98472C23F25C01
:100B3000002A54D0013BF55C337BEB18DBB2D118B3
:100B4000C9B28B4221D25219D3B29946A34B9A46CD
:100B500003E00135EDB24D4517D00F242C40337B17
:100B6000E41850229E4902A8D047132CF1D8A400C3
:100B700002ABE05801A900234B70CB708B7001339E
:100B80000B70C0B2974B9847E3E7F4895022944921
:100B900002A8924B9847132C13D9737D9B00DBB2AC
:100BA00042461370B37DDB0172781343DBB24246D9
:100BB00053703379342B00D97BE19B008A4AD35898
:100BC0009F46A40002ABE05801A900234B70CB70F4
:100BD0008B7001330B70C0B2824B9847DDE7347BDA
:100BE00050227F4902A87D4B9847132C15D9F489D0
:100BF00050227B4902A8794B9847132CCDD8A400EA
:100C000002ABE05801A900234B70CB708B7001330D
:100C10000B70C0B2734B9847BFE7A40002ABE0581B
:100C200001A900234B70CB708B7001330B70C0B2E5
:100C30006C4B9847DBE70423102402211AE0717CF7
:100C4000337C102416E006231024012112E008232F
:100C5000102400210EE00023302400210AE00023AC
:100C60002024002106E000230024002102E00223CA
:100C700010240121090170220A4013434246937057
:100C8000F37D17203F2B00D91BE7D3703A68537EC2
:100C90005BB2002BFBDBF37C728813432422B25C33
:100CA000D2001343327D92001343B27C52001343AF
:100CB000234342469380337E002B20D0102C00D15A
:100CC000D9E000D898E0202C00D1B6E0302C16D125
:100CD000F27C002A0AD0F26980321720FF2A00D95C
:100CE000EFE6326A8032FF2A00D9EAE61720F2697D
:100CF000FF2A00DDE5E6326AFF2A00DDE1E6396819
:100D00004A7E52B2002AFBDB424613723A68537E97
:100D10005BB2002BFBDBB38B424693833A68537E76
:100D20005BB2002BFBDB338C424613842C23F35C39
:100D3000002B05D0013BDBB217200F2B00D9C0E6FA
:100D40002B22B15C17200F2900D9BAE63868427E01
:100D500052B2002AFBDBF289307B0243B0680243C7
:100D600009050A431B041343424613612A23F35C1B
:100D700013750F2393751533F35C002B12D0F38C8E
:100D80001A4A1720934200D99BE642469384328D3B
:100D900080231B01D31815499BB28B4200D990E6E2
:100DA0004346DA84124B1B685B01E022D2001340F9
:100DB000104A516849011268D20E0A43D2B2134355
:100DC0004246138500207CE60004004000080040F5
:100DD00070110020D589000049890000EDBD000098
:100DE000E4BE0000CD8A000010BE0000FF0F00002E
:100DF0002460800020608000002C00D07FE7F27C1F
:100E0000002A0FD0F269802109018C4662442A49E8
:100E100017208A4200D954E6326A624426498A423F
:100E200000D94EE6244A1720F169914200DD48E6D8
:100E3000316A914200DD44E661E7F27C002A0FD07E
:100E4000F269802189008C4662441C4917208A423D
:100E500000D936E6326A624418498A4200D930E63F
:100E6000164A1720F169914200DD2AE6316A914263
:100E700000DD26E643E7F27C002A0FD0F2698021EC
:100E800009028C4662440E4917208A4200D918E6AE
:100E9000326A62440A498A4200D912E6084A172097
:100EA000F169914200DD0CE6316A914200DD08E60D
:100EB00025E7172005E6C046FF0F0000FF030000EE
:100EC000FFFF000070B52E4B1C6823681D7EEDB23D
:100ED000EA0705D5E27ED20702D5A27ED20716D454
:100EE0006B0708D5042322681376E37E9B0702D59F
:100EF000A37E9B073CD4AB0708D502232268137658
:100F0000E37E5B0702D5A37E5B0735D470BD01226B
:100F10001A762268537E5BB2002BFBDB61698B1C67
:100F20006361538B9BB20B80238B013B9BB223836A
:100F3000002B11D0637F002BD2D02268537E5BB28E
:100F4000002BFBDB137B02210B4313732268537EC0
:100F50005BB2002BFBDBC3E7237F052BC0D1002353
:100F600023770133226893752000A3689847B7E779
:100F70002000E3689847BEE7236920009847C5E74B
:100F8000701100200368D879C009704700230370EE
:100F900001224270837003714371C3708371704783
:100FA000F0B5C64600B582B00500140001602A4ABB
:100FB000106A8023DB02034313620B781C209B071B
:100FC00003D502B004BC9046F0BD0B781738DB07A0
:100FD000F7D401A9E3780B701C30204B98472120EF
:100FE0001F4B984700266B465E70DE7001236A46F1
:100FF00013709670694602201A4B98472B689846E2
:1010000063782B71AE71A3795A1E93419B002678A9
:10101000A278002A01D0042216432279002A01D0A6
:10102000102216436279002A01D008221643DBB24F
:10103000424613700C4F2800B8470028FBD1F6B287
:1010400043465E7023786B7100236B61AB61EB618B
:10105000064B1D60B5E7C04600040040D58900007E
:1010600049890000CD8A0000850F0000741100201E
:1010700070B5040006687378027913437370094DE4
:101080002000A8470028FBD1337802221343337095
:101090006379002B04D1044A136C04210B431364BD
:1010A00070BDC046850F00000008004002685378FC
:1010B00001210B4353707047F8B504001700066810
:1010C000064D2000A8470028FBD1A379002B02D1B0
:1010D00037810020F8BDB781FBE7C046850F0000CF
:1010E00070B5274B1C682568AB79DB0707D5012352
:1010F000AB712300143302D0637C002B31D1AB7968
:101100009B0738D50223AB71A3899BB2002B2CD04F
:10111000E3899BB25A1C92B2E2815B00A2689446BA
:1011200063441B889BB2AB81A389013B9BB2A38123
:10113000A3899BB2002B18D100222033E2541E3B1E
:101140002B71AB71802189047E330E4AD15023006C
:10115000143310D0A37C002B0AD00020E3699847F9
:1011600006E00020A3699847C9E72300143302D0A2
:10117000237C002B00D170BD636900209847FAE7FB
:101180007411002000E100E010B5264B9847264975
:101190000B8C0F2213409B002448185803781A40E8
:1011A0003F23CA540F33CA5CD2B203781B012049D3
:1011B000C91849881F4CE3185B88CB1A4361D307D1
:1011C0000FD501214E23184AD1543E3B4374037C72
:1011D000DB0703D54368002B00D09847164B984790
:1011E00010BD93070DD502214E230F4AD154002381
:1011F0004374037C9B07F1D58368002BEED098479E
:10120000ECE75307EAD504214E23074AD154483B63
:101210004374037C5B07E1D5C368002BDED098479D
:10122000DCE7C046B982000000480041D40D002030
:1012300080110020F00D0020F982000000230370CF
:10124000437003228270C37003717047F8B5CE46B5
:10125000474680B505000E00454B9847454B1B7827
:10126000002B18D1444B5A6920210A435A61DA698C
:1012700010390A43DA61414B1A880E398A431A80C1
:1012800001221A803E4A5A633E4A9A633E4A1A80B5
:10129000384B01221A70364B9847364B5B68DA0799
:1012A0000FD55B08012401221A420BD05B080134E0
:1012B000E4B2052CF8D1354B9847344B98471420AD
:1012C00051E000242B4A51680123A3400B43536093
:1012D000137A013B13722D4B9847FF2CEDD02C70E5
:1012E0000F2398461C40254F30339946FC54013358
:1012F000FA5C02218A43FA540124FC541C4B98479F
:101300002B78424613404A46BB543B692A789440A6
:10131000A3433B613278520160231340727812027A
:10132000FC2189010A401343B2789205C0210904C7
:101330000A401343F178002904D007220A4008210B
:101340000A4313433279002A01D0102213430B4A77
:1013500053640E4CA0470023AB612B789B000C4AD2
:101360009D50A04700200CBC90469946F8BDC04651
:10137000B98200000C000020000400400048004139
:1013800080110020F00D0020020F0000F982000003
:10139000D40D002070B50400194B9847637C052BD1
:1013A00008D0A3695B889BB2002B07D1154B9847E7
:1013B000172070BD134B98470520FAE74026124BC3
:1013C0001E6022780F231340104D3F22AB54237828
:1013D0000F4AD25C072313404D22AB54052363749C
:1013E000207800010B4BC018A1693D3A0A4B984781
:1013F000AB5D02221343AB55024B98470020D8E760
:10140000B9820000F982000000E100E000480041DC
:10141000400E002080110020EDBD000010B504003A
:101420000C4B984722780F2313400B4A3F2153540B
:1014300000214023D154094B984723781B01084AC7
:10144000D21852880749CB185B88D31A63610423EA
:10145000637410BDB982000000480041F9820000A9
:1014600080110020F00D002070B50500437C062B94
:1014700000D070BD037801249C40114B98472A7816
:101480000F2313400F4E3F22B354726C80239B04F2
:10149000134373640C4B9847B36A23409C420BD0B0
:1014A0000A4A31008B6A23409C4205D0013A002A47
:1014B000F8D112236B74DCE705236B74D9E7C046BF
:1014C000B982000000480041F98200000F270000A7
:1014D000F0B50A780388012632400124A343134360
:1014E00003804B78048803273B405B00062294432B
:1014F0001C4304808D7804883D40ED0018239C43F4
:101500002C430480CA7803883A401202164C2340C8
:10151000134303800B79048833409B02134A144021
:101520001C4304804D7904883540ED02104B1C406B
:101530002C4304808A790388324012030D4C2340E7
:1015400013430380CB7907221A4003885203DB043C
:10155000DB0C134303800B894380CB6843600B692A
:1015600083604B69C360F0BDFFFCFFFFFFFBFFFF23
:10157000FFF7FFFFFFEFFFFF427C0523052A0BD09B
:101580008369002B0AD0DA68002A03D0DB68DA68A6
:10159000002AFBD1D9600023180070478161002325
:1015A000FAE70000F0B5C64600B580000E4BC758FC
:1015B0003B68DE6ABB6B7A6B13401E4000240B4B0A
:1015C000984602E00434302C0AD04346E5583542B0
:1015D000F8D03B195B68380098473B68DD62F1E75B
:1015E00004BC9046F0BDC046D011002034BF0000BE
:1015F00010B50020014B984710BDC046A51500004E
:1016000010B50120014B984710BDC046A51500003C
:1016100010B50220014B984710BDC046A51500002B
:1016200000B583B003006A46D01D017099B2012253
:10163000014B984703B000BD412D0000F8B50500EF
:101640000E001700032101402120064CA04729006D
:101650002620A04739002420A04731001F20A047A2
:10166000F8BDC0462116000010B582B081B26B46AD
:10167000DC1D01222000024B9847207802B010BDEB
:10168000C92C000010B50020044CA047DF21014008
:101690000020034B98470020A04710BD69160000AA
:1016A0002116000010B50220014B984710BDC0461E
:1016B0006916000030B583B0104B98476B46D8715F
:1016C00007331B780024DB0702D4200003B030BDB1
:1016D00003200B4B9847041E0DD0022807D8002189
:1016E0000020084DA84707212620A847EDE7042839
:1016F00001D1013CF3E70024F1E7C046A516000044
:10170000691600002116000070B5FD20044CA047AA
:101710000500FE20A0470002284380B270BDC046ED
:101720006916000010B50A4B98470A4B9847C0B29B
:10173000094B187000212A20084B984773226F210B
:101740000720074B9847074B9847074B186010BD79
:101750008516000009170000450E00202116000024
:101760003D160000F52B00005C0E0020024B18789F
:10177000C0B200221A707047540E002010B5040049
:101780000B4B1870C30702D4A30708D410BD012166
:101790000120084B98470220074B9847F4E70121A6
:1017A0000220044B98470220034B9847EEE7C046BF
:1017B000550E0020E5350000052C0000014B186097
:1017C0007047C0461C00002010B5414B1C68414BBF
:1017D000984701002000404B98470023642868D9AF
:1017E0003E4B1B78002B48D03C4B1B78DB070DD4BD
:1017F0003A4B1B789B0716D4384B1B78002B1AD119
:10180000374B98470023374C200057E03122022104
:101810000120354B9847C0B20028EDD02D4B98479A
:10182000324B1860ECE73122022102202E4B984700
:101830004000C0B2F0E72D4B1C68264B98470100D2
:101840002000254B98472A4B1B689842D8D9234B38
:101850001B78DB0707D4214B1B789B0708D4002299
:101860001E4B1A70CCE700210120224B9847F2E76B
:10187000002102201F4B9847F1E7194B9847002899
:10188000C0D003230340013B16499C00625801323B
:101890006250194909688A4204D9184A1070002117
:1018A000104AA1500B4B9847094B1860134B1B78FB
:1018B000DBB2180010BD0133032BF3D09A0012598C
:1018C000002AF8D099000A58013A0A50F3E7C046B6
:1018D0005C0E0020F52B0000012C0000550E0020AE
:1018E000B5160000480E002051340000580E0020AC
:1018F0001C000020E535000018000020540E0020D8
:1019000071B5FFB004000D001600802292000B4953
:1019100068460B4B9847002E0CD00021230A685CC8
:1019200043405B0020026A469C5A4440A4B2013105
:10193000B142F3D320007FB072BDC04664BF000047
:10194000EDBD000010B5040001230370C378FF2231
:101950008270BF3A9343383A934318329343C3702B
:10196000C823C380B43B8380014B9847A06010BD5F
:10197000F52B000070B504000D00084B9847A060DF
:10198000E37808221343E370FF2D01D8257070BD62
:10199000DBB220221343E370F9E7C046F52B0000C9
:1019A00070B50400C3787F2B00D870BD304B02683F
:1019B0001A42FAD02F4B984705000100A0682E4B21
:1019C0009847E3781A0723D5A288904219D8DB06F6
:1019D000EBD4E37810221343E370A1784022134044
:1019E000C8090022002804D14A09D20123488446AC
:1019F00062441F20084001218140002B06D19161E3
:101A0000D3E7A56008229343E370CEE75161CCE7AA
:101A1000E28890420ED92378002B01D0013B23703D
:101A2000A560134B22681A42BFD0E3780822134303
:101A3000E370BAE7DB06B8D5A078E3785B06DB0F86
:101A4000C1090022002904D14209D2010B498C4668
:101A500062441F21014001208840002B05D0906185
:101A6000E37810229343E3709FE75061F8E7C046A4
:101A7000FF000020F52B0000012C00000044004175
:101A800010B50248024B984710BDC046E81300202D
:101A9000A119000010B50D4C20000D4B98472323D1
:101AA000A370E37840221343DBB220221343802249
:101AB00052421343E3700A23A380F5239B00E38083
:101AC00001212000034B984710BDC046E8130020B9
:101AD00045190000751900004004F0235B03034022
:101AE000C8430003F821490208401843034B010092
:101AF0001940034A916183435361704700F01F000E
:101B00000044004110B51A4A93889BB2591C89B20F
:101B10009180D28892B2934203D9154B1B681B0562
:101B200000D410BD124B00229A801B685B02F8D5CE
:101B30000F490B68DB03DB0E01331F3213400A68C9
:101B400018030C4C224002430A600A689202D20E2B
:101B50009342E6DD0A000B682340136013681B0202
:101B60001168DB0F9B05044801400B431360D8E765
:101B7000F4130020FF0FFEFFFFFFBFFF70B52049E9
:101B80000A6852000F200B680240834313430B6026
:101B90000B681B0722D01A4A13681A490B401360BE
:101BA000194B9847164C20680007000F2368DB0389
:101BB000DB0E22681206120F561C21680F253540D5
:101BC0002D01F026B143294321609B00E3189B18A7
:101BD000197AC9B20D4B9847206870BD0B000A688E
:101BE0000F218A430E390A431A601A68EF318A437B
:101BF0001A601968802212010A431A60D0E7C046B1
:101C0000F4130020FFF7FFFF051B0000D91A0000A6
:101C1000C3070FD404220E4B9A6183070ED480228F
:101C200012010B4B9A6143070DD580229203094B99
:101C30005A6170470422064B5A61EEE78022120176
:101C4000034B5A61EFE780229203024B9A61F0E75F
:101C50008044004100440041010E1F231940054A01
:101C60001172010C19405172010A1940917203401E
:101C7000D3727047F4130020034A11688023DB03FA
:101C80000B4313607047C046F413002010B5244C7A
:101C9000382200212000234B98470020224B9847F0
:101CA00023680F2293430E3A134323602368EF32D5
:101CB0009343236023681D4A1340236023681C4A12
:101CC000134023603223E3800023E372A372637224
:101CD00023721F22E2731120A0730E2161732373FC
:101CE000E274A07460742174E275A2756275217546
:101CF000E276A27661762376E377A277637723771D
:101D000023680C4A1A40C0231B0313432360206836
:101D10000007000F217AC9B2074B984710BDC04693
:101D2000F4130020FFBD0000111C0000FFFFBFFFE7
:101D3000FFFF7FFFFFFFC1FFD91A000010B5002988
:101D40000DD003000139C9B2013142180020054C01
:101D500019784840205C01339342F9D110BD080046
:101D6000FCE7C046D4C2000010B50A4B00221A702E
:101D70005A7082215A54084B1860002809D0074C29
:101D800080322100064B9847064B1C608022064B90
:101D90001A6010BDE0110020600E002030140020F9
:101DA000456B00002C140020B014002070B5040016
:101DB0000D000020042902D92378FF2B00D070BD2C
:101DC0006318013B1B78FE2BF9D10339C9B2601CA3
:101DD000104B98470200AB1EE15C00209142EED10F
:101DE000A1786A1F9142EAD13229E8D80A4A61787B
:101DF0001170691F5170032B0ADD180003231500B1
:101E0000E15C5A1EA95401338342F9D10120D6E77F
:101E10000120D4E73D1D0000E0110020F0B585B0A1
:101E20000122C84B1A70C84B19780B00403BDAB23C
:101E3000502A00D90AE39300C44AD3589F46C24BA4
:101E40005B78002B03D00022BE4B1A7050E1BE4BD2
:101E5000022182229954813A81315A5401315A54D3
:101E600046E1B94B5B78042B03D00022B54B1A70C6
:101E70003EE1B54B0021822299549A1C9878DB7878
:101E80001B020343907800040343D07800061843F4
:101E9000AF4B98472CE1AC4B5B78012B03D0002271
:101EA000A84B1A7024E1A84B0021822299549878FB
:101EB000A84B98471CE1A44B5B78002B03D0002271
:101EC000A04B1A7014E1A04C01228223E254A24BD1
:101ED00098478323E0540BE19B4B5B78032B03D0A3
:101EE0000022984B1A7003E1974B002182229954EB
:101EF0001A79D9789878994B9847F9E0924B5B78A2
:101F0000012B03D000228F4B1A70F1E08E4B002181
:101F1000822299549C782000914B9847844200D1AA
:101F2000E6E00022874B1A70E2E0874B5B78002BDB
:101F300003D00022834B1A70DAE08A4B98470700DF
:101F4000814C06228223E254874E88490068B047BC
:101F5000874DA84780B28323E054000A23008333CF
:101F6000587082497868B047A84780B28523E0540A
:101F7000000A2300853358707C49B868B047A847E9
:101F800080B28723E054000A87346070B0E06E4B63
:101F90005B78012B03D000226A4B1A70A8E06A4BD1
:101FA0000021822299549878724B9847A0E0664BA2
:101FB0005B78052B03D00022624B1A7098E0624CCC
:101FC00023791B02E5781D43A3791B0266791E4322
:101FD00000228223E254A378674A10781840674BA6
:101FE0009847A0783100664B98470220654B984788
:101FF000A0782900644B98477AE0534B5B78032B19
:1020000003D000224F4B1A7072E04F4A0021822306
:10201000D15413791B02D4781C4324B2E317E2187D
:102020005A405A4B1B889A420BDC474DA878252210
:102030000221574B98470419A1B2A878524B9847F0
:1020400056E0414B9B784C4A107818404B4B9847D0
:10205000EBE73D4B5B78022B03D00022394B1A7023
:1020600046E0394B002182229954D9789878494B1F
:1020700098473DE0344B5B78032B03D00022314B73
:102080001A7035E04D291CD071290FD00622722913
:1020900015D02D4900208223C854CB1C92B28878D9
:1020A0000221009101313C4CA04721E0264B9B7856
:1020B000314A10781840314B98471E22E9E71A320E
:1020C000E7E70822E5E7204BDB78FC2B05D81E4B21
:1020D0005B780322022B08D112E00022194B1A7000
:1020E00006E0194B5B78022B04D00022154B1A70C6
:1020F00005B0F0BD144AD17803230B40D3700422FD
:10210000114900208223C854CB1C92B28878012147
:1021100000910231204CA047EAE70B4B5B78042B7F
:1021200003D00022074B1A70E2E7074A00218223FE
:10213000D154D31C90780322009218320331164CEC
:10214000A047D5E764130020E011002064C100001F
:10215000591C0000111C00006D1700003D16000006
:1021600005040000FD030000C99C000000401C465F
:10217000CD93000055360000200000207D170000A0
:10218000B5350000052C00006D3500002200002050
:1021900051340000393500008D330000AF4B5B78BF
:1021A000022B03D00022AE4B1A70A1E7AB4B0021EB
:1021B00082229954D9789878AA4B984798E7A74BE8
:1021C0005B78012B03D00022A54B1A7090E756399B
:1021D000CBB2092B09D89900A34B5B589F46272205
:1021E0000DE006220BE0082209E0002382229B4931
:1021F0008B549B4A13707BE7252200E02922974BE2
:1022000098780221994B98470390431C0BD0934B2D
:1022100002218222995403AA1078813158545178AE
:102220008422995464E700228D4B1A7060E78B4B2F
:102230005B78012B03D00022894B1A7058E759298B
:1022400018D05A2904D02E22582902D0322200E078
:102250003122824B98780221844B98470390431C8B
:102260000AD07E4B01218222995403AA117883223D
:1022700099543DE72D22ECE70022794B1A7037E79D
:10228000764B5B78022B03D00022754B1A702FE738
:10229000724BDA78332A00D92AE798780221734BF7
:1022A00098470390431C00D122E76C4B1B786F2B9F
:1022B00005D0702B0CD00022694B1A7018E7674BC1
:1022C00001218222995403AA1178832299540FE79D
:1022D000624B02218222995403AA1078813158540A
:1022E00051788422995403E75C4B5B78002B03D030
:1022F00000225B4B1A70FBE603AC00232380574D92
:1023000004228233EA54213202210120574EB04781
:1023100000B2208022788323EA5462780133EA54A1
:10232000252202210220B04700B220802278852396
:10233000EA5462780133EA54DAE6484B5B78012BC1
:1023400003D00022464B1A70D2E6444B0021822271
:1023500099549B78002B03D0423A454B9A61C7E6CB
:102360004022434B5A61C3E63C4B5B78012B03D0C0
:1023700000223B4B1A70BBE6384B00218222995455
:102380009B78002B04D080221205394B9A61AFE66E
:1023900080221205364B5A61AAE6304B5B78012B3E
:1023A00003D000222E4B1A70A2E62C4B0021822271
:1023B000995498782F4B98479AE6284B5B78012BD5
:1023C00003D00022264B1A7092E6244B0021822271
:1023D00099549878284B98478AE6204B5B78012BD4
:1023E00003D000221E4B1A7082E61C4B0021822271
:1023F00099549878214B98477AE6184B5B78012BD3
:1024000003D00022164B1A7072E6144B0021822270
:10241000995498781A4B98476AE6104B5B78042BCE
:1024200003D000220E4B1A7062E60C4B1A7912028E
:10243000D87810435979134A118000218222995487
:102440009A78114B1A70114B984751E6002382225B
:1024500002498B54024A13704AE6C046E01100203C
:1024600064130020E5350000A8C2000051340000CC
:102470000044004175080000993000006508000024
:102480004D0800002200002020000020BD170000A1
:1024900010B50400044B1868002803D08AB221004C
:1024A000024B984710BDC046600E0020356A000000
:1024B00010B582B001AC074B1B882380064B18680F
:1024C0000021064B984702212000054B984702B097
:1024D00010BDC046D0C20000600E0020656B000039
:1024E0009124000070B5C0B0284B1B78002B47D05A
:1024F000FF2220AB1A70264B1A7869460A70822296
:102500009D5C4D70281E0ADD0023214C1A006A4490
:1025100019008331615C917001338342F6D1A91CAB
:10252000C9B268461B4B98472B006B449870033523
:102530000022012420A8FD2609E00655611CC9B22D
:10254000023B43540234E4B20132AA4209DA6B4638
:10255000D35CD91CC9B20229EFD903550134E4B2C6
:10256000F2E720ADFE232B550B4B186800210B4BD7
:1025700098470134E1B22800094B984740B070BD3C
:10258000084B98470122014B1A70F7E764130020AB
:10259000E01100203D1D0000600E0020656B000072
:1025A00091240000B124000010B5234B1B68002BC0
:1025B00040D09A8D92B2214909688A423AD0586A2D
:1025C000411E9C8D1D4A14600A78FF2A0CD0FE2AF9
:1025D0000DD01B4C2478002C26D1FD2A2AD159621B
:1025E000FC3A174B1A7025E0164B196022E0154B88
:1025F0001868091A0131C9B2134B9847002810D046
:10260000124B9847124B9847124C0B4B186880227C
:102610002100114B98470B4B1C608022074B1A601E
:1026200008E00E4B9847EFE70138023202700022B3
:10263000034B1A7010BDC046600E0020B01400207D
:10264000DC1100202C140020AD1D00001D1E000018
:10265000E524000030140020456B0000B124000088
:1026600010B50C4B1B681A0608D401220A4B1A60DD
:10267000084A012311680B40136010BD81690122D3
:1026800013409B00054A9B584B600548054B9847F3
:10269000EEE7C046680E002024000020681B0020E2
:1026A000C81400209513000070B52E4A138ADB0869
:1026B0002D490B60002313822C490A682C4C0133EE
:1026C0001D0015402560806901320A6013409B009F
:1026D000284A9B5883602848284B984721684A021B
:1026E000274BD2180902274BC91880239B00D51805
:1026F0000020254C07E0254EB44663440B80023190
:102700000432954206D00026935FA342F3DD0130E8
:1027100000B2F0E7092814DC134B1B681C4A991817
:102720002C22FF32914202D89BB21A4A13831A4BD1
:102730001B68002B08D10E4A802311680B431360DD
:1027400070BD164B9847E7E715488269084B1B6830
:102750009B0014495B585360084B984700220E4B6E
:102760001A60EDE700340042640E00206C0E002079
:10277000680E0020C0140020301B002095130000BC
:10278000001500201C190020CC0C00000080FFFF69
:10279000DEF4FFFF0030004224000020791C00001E
:1027A000C8140020681B00200F4B9B8ADB0619D53C
:1027B0000D4A938A10210B4393820C4B1B68002B0C
:1027C00010D00B4B5B7C002B0CD0094B1A78094BBB
:1027D0004D215A5402315B5CDB0703D40123934043
:1027E000044A13617047C046005000422400002094
:1027F000301B002000480041F0B589B006AE300023
:10280000204B984702270223B370273373700025AB
:1028100035701D4C310020001C4B98471C4B80220A
:102820009200944663441B4A1360614659185160F4
:10283000012269460A704D708D704A718D71CD719B
:10284000059580214900684601816946C27005717D
:10285000114A03920493114D2800114B9847290007
:102860002000104B9847104BA360237C3B432374FC
:1028700022780E498B5C3B438B5420000C4B9847CD
:1028800009B0F0BD3D120000301B00204D120000C9
:1028900000150020C014002030500042F014002029
:1028A000D114000079150000A9260000400E002078
:1028B0009513000010B58EB001AA00231370937019
:1028C00000219380138151709172D17211739173B1
:1028D00051731174536193611177136253621385BD
:1028E000938520339371094B5385094C0949200086
:1028F000094B98472268D37B5BB2002BFBDB138824
:1029000002210B4313800EB010BDC046B70B000070
:102910004C1B0020003000422D490000F0B5C64697
:1029200000B596B014AC2000344B9847022398466B
:102930000223A3701933637001262670304F2100E3
:102940003800304B9847304B0133FF332F4A136028
:10295000591CFF3151600EA90E70002400254C70E7
:102960008C700E718C71CC714C6180220A81CE709A
:102970004C71CB60264B0B61264E3000264B98479E
:1029800031003800254B9847254BBB603B7C4246C5
:1029900013433B743A7823498B5C404603438B5482
:1029A0003800214B984701AA1470947094711481D7
:1029B000002353709572D572157395735573157402
:1029C000546194611577146254621485548594851A
:1029D0008023DB009380154C15492000154B984748
:1029E0002268D37B5BB2002BFBDB138802210B43F5
:1029F000138016B004BC9046F0BDC0463D120000E6
:102A0000C81400204D1200001C190020681B002073
:102A100008480042201B0020D11400007915000056
:102A200061260000400E00209513000000190020D0
:102A3000003400422D49000010B58169094A13682D
:102A40009C0009482058486001330124234013604A
:102A50000648074B98470022064B1A70064B1C701D
:102A600010BDC046740E0020701B0020781B002093
:102A700095130000700E0020710E002010B5014B60
:102A8000984710BD691400008002014BC0187047C0
:102A9000941B00200022024B1A70024B18607047F2
:102AA000710E0020740E002070B588B006AD2800AD
:102AB000224B98470223AB702A336B7001262E708D
:102AC0001F4C290020001F4B98471F4A8023DB0022
:102AD0009C4662441D4B1A606146511859606B4612
:102AE0001E70002369464B708B700E718B71CB7119
:102AF000059380218900684601816946C67043714B
:102B00000392134B0493134D2800134B984729004D
:102B10002000124B9847124BA3601022A256217836
:102B20001048435C104D656003252A4322742B43F3
:102B3000435420000D4B984708B070BD3D12000073
:102B4000781B00204D120000941B0020701B0020F9
:102B500034500042A0230020D11400007915000059
:102B6000392A0000400E00207D2A00009513000045
:102B700010B5034A136801331360024B984710BD28
:102B8000780E00207D1B0000012070477047000078
:102B900010B584B000236A46D37002930393138068
:102BA0009370012313710B4C0B4920000B4B98477A
:102BB00020000B4B984702220A4920000A4B9847F5
:102BC00002212000094B984720212000084B9847FC
:102BD00004B010BDB023002000140040913D00005F
:102BE000B13C0000712B0000953E0000CD3E00007E
:102BF000713E0000014B18687047C046780E0020F7
:102C0000081A7047034B19681A0013685B1A984238
:102C1000FBD87047780E002030B58FB001AA224B48
:102C20005360002393601376802189031161012191
:102C30004942D182918225315354936208315354D1
:102C40000131535401315354D7331386B9330193AF
:102C5000164BD361164B136203231373154C16499D
:102C60002000164B984724680722E3691A42FCD1DA
:102C700023680222134323600E4D2868104B9847A7
:102C80001F2318401E3B83400E4A1360E888002330
:102C90001021628B0A4204D101338342F9D31023FD
:102CA00063830FB030BDC046480D0000020016001F
:102CB00002001700B824002000140042593F000011
:102CC000E970000000E100E030B589B004001500B3
:102CD0006B46D9800020002A04D08BB29B18013BA0
:102CE000FF2B01DD09B030BD05A928230B80273B50
:102CF0004B806B4606334B6000230B724B728B721A
:102D00000C480D4B984703000020002BEAD102A984
:102D100028330B804D804C6000230B724B728B72FA
:102D20000448064B984703000020002BDAD1280006
:102D3000D8E7C046B8240020814500005D4500006A
:102D400030B5C5B00D0014000023002A05D08A1844
:102D50000132802149008A4202D9180045B030BDB5
:102D6000220001006B46581D094B984701AB1D70AE
:102D700041A928230B80631C4B8001AB4B600548A5
:102D8000054B984700230028E7D12300E5E7C0461C
:102D9000EDBD0000B82400208145000030B591B0A1
:102DA0008023DB05009300230193FF2269460A81FB
:102DB0008B72CB7201222421684642540131425465
:102DC00025328354013283540A93053283540C9381
:102DD0000D93C37603760377437613228276437787
:102DE000E1235B020893C4239B030393164B0E93CA
:102DF000164B0F9380239B0103828023DB030593F3
:102E000003222D23C2546A4611491248124B984797
:102E1000002800D0FEE70F4D2C6820000F4B98478C
:102E20001F2318401E3B83400D4A13602A68D36954
:102E3000002BFCD123680222134323600548094B71
:102E4000984711B030BDC04603003600030037007C
:102E5000001C0042E0240020C5660000E97000006C
:102E600000E100E0691D00000048704708240020D0
:102E700030B593B002AA8023DB0502930023536090
:102E8000FF2111819372D372FE3924201154013035
:102E9000115401301354013013549362053013540C
:102EA00053639363D3635361D37613761377537667
:102EB000133393761D4B136284239B03D3601C4B07
:102EC00013635177C023DB01138202312D23D154C8
:102ED00018491948194B9847002813D001AC802392
:102EE00023707F3B63700023A370E37021000D20EB
:102EF000134DA84721000E20A84721000F20A84706
:102F000013B030BD0C4D2C6820000E4B98471F238A
:102F100018401E3B83400C4A13602A68D369002B7B
:102F2000FCD12368022213432360D7E740420F00FD
:102F300003002A000018004208240020C566000093
:102F4000CD8A0000E970000000E100E0F0B5C6465F
:102F500000B58CB04A4E4B4930004B4B984706AAFF
:102F60000024D471D470012515705471557094717A
:102F700095725473947354741474D47303239370BC
:102F80001571013B13725572D572147315750833A0
:102F900093740627D774D57501335375977500213F
:102FA00030003A4B98476B46DC705C719C71DC7169
:102FB0001C725C729C72DC721C735C739C73DD739C
:102FC00004236A46137454749474D4741475547539
:102FD0009575957015710823137057700121300095
:102FE0002B4B984698476B469C759D70DC741D7101
:102FF000DD7307236A461370577094740021300004
:10300000C04732680221138B0B42FCD11378022196
:103010000B4313701A4B1A680231138B0B42FCD10D
:10302000137804210B431370154B1A680C31138B62
:103030000B42FCD1137810210B431370104B1A680C
:103040001031138B0B42FCD1137820210B431370EA
:103050000B4B104A9A600220197E014319765A7E62
:1030600002435A761A68DB7E012B05D010231382A7
:103070000CB004BC9046F0BD80235B01F7E7C0466E
:103080007C240020005000423D380000B53800008C
:103090009D3A0000A9270000014B18607047C04608
:1030A0007C0E0020F8B5234B1B68002B00D1F8BD27
:1030B00000212148214B9847052821D0204B9847D3
:1030C000204B18601B68002BF1D01B4C0021200006
:1030D0001D4B98471B4F39681C4D28001C4B9847C7
:1030E00001201C4EB047396889B228001A4B984716
:1030F0000020B047402219492000194B9847D6E7D5
:103100000D4B9A8D40239B1A0E4A13601368002BB7
:10311000D4D0094C002120000B4B9847094B19686B
:103120000E4D28000F4B98474022290020000C4BE1
:103130009847C3E77C0E002008240020856B000020
:103140004D770000800E0020656B0000C823002032
:10315000E979000089310000693100003C24002039
:10316000456B0000597B000010B50400044B186843
:10317000002803D00A002100024B984710BDC0462A
:10318000DC250020356A00001B4B1968002919D086
:10319000002818D00A68D369002BFCD1506880231E
:1031A0005B02034353600123CB710B68DA69002A89
:1031B000FCD1DA69002AFCD15A68104802405A60F2
:1031C00000238B7170470A68D369002BFCD15068CB
:1031D00080239B020343536001238B710B68DA69E0
:1031E000002AFCD1DA69002AFCD15A68044802405E
:1031F0005A600023CB71E5E7DC250020FFFFFDFFCF
:10320000FFFFFEFF322803D88000034B1B589F4668
:10321000022070470120FCE7D4C30000F8B5040089
:1032200006A8007884463848006800286AD0002044
:103230006546372D49D83548FF2505704570023D54
:1032400085700025C570047103293FD0062943D03D
:1032500002290DD02D480324447100248471C171CA
:10326000062942D8052901D2012907D108250AE0FB
:1032700007244471254800248471C17123480272D7
:10328000002242720A25022932D0002B0ED0664657
:10329000002E0BD0290000221C4F481C9C5C7C5443
:1032A000013281B2B242F8D36544ADB2174C2A0064
:1032B00021000020164B9847C3B263556B1C9BB28C
:1032C000000AC0B2E0540235A8B2F8BD604605302D
:1032D000C0B20E4C6071CDE70C4A0421517100213F
:1032E00091710631D1710825CFE70829BED0C5E715
:1032F0006A1C92B20549604648550235ADB20020BD
:103300008854C2E70020E0E7DC25002014250020D7
:1033100001190000F8B504000D00037846788078A4
:10332000E77822790A80A279120261790A436A80D9
:103330003A2A02D901204042F8BDFF2169711B06DB
:10334000360433433B43000203430E490B408B4298
:1033500001D06879F0E7E3792B71A018817909022F
:1033600043790B43EB80053292B221000020064BDB
:103370009847EB888342ECD1237A6B710934AC60B7
:10338000E7E7C04600FDFFFF0119000030B583B03C
:1033900006AC2478D2B2C0B20094094CA047C4B2A3
:1033A0000020002C01D103B030BD0130054DA847ED
:1033B000A1B20548054B98470020A8470120F2E735
:1033C0001D32000089310000142500206931000001
:1033D000F0B585B00AAC24780094164CA0470028BC
:1033E00001D105B0F0BD144B98470390134B1868FA
:1033F00040221349134B984700250F4F0F4C124E94
:10340000B84701000398B04701280AD82268938D75
:103410009BB29D42F4D0958DADB2074B9847039077
:10342000EDE7064B18680021084B98474020401BE9
:10343000D7E7C0468D330000F52B0000DC250020C7
:1034400060250020456B0000012C0000656B00002A
:10345000F0B587B004900391140010001B4B9847FF
:103460000590C5B203261A4F10E01A4B9B681878D6
:103470002AE0184B9B68587800021A7810439B7812
:103480001B04184320E0013E002E1BD0A2B26B4665
:10349000188A009500230399B8470028F3D00D49F6
:1034A0000D480E4B98470028EDD1059B012BDCD031
:1034B000039B012BDDD0074B9B68587800021B78DB
:1034C000184301E00120404207B0F0BD0532000082
:1034D000D133000054250020602500201533000062
:1034E00030B583B00C0080B2142300930023002277
:1034F00002210C4DA84700280ED00B490B480C4B5D
:10350000984700280BD1084B996814222000094BDA
:103510009847002003B030BD01204042FAE7012067
:103520004042F7E7D13300005425002060250020F9
:1035300015330000EDBD000030B585B004000E2548
:103540006D440123194029801820064B9847030039
:10355000A0B2DBB200932B0018220321024CA0473B
:1035600005B030BD053200008D33000010B584B0C9
:1035700004000D4B994212D90B4A0E236B441A805A
:103580001E200A4B98470300A0B2DBB200930E2323
:103590006B441E220321064CA04704B010BD0E232D
:1035A0006B441980ECE7C046FF03000005320000C1
:1035B0008D33000030B585B004000E256D442980A0
:1035C0002020064B98470300A0B2DBB200932B00EB
:1035D00020220321024CA04705B030BD0532000077
:1035E0008D33000030B585B004000E256D44298070
:1035F0001920064B98470300A0B2DBB200932B00C2
:1036000019220321024CA04705B030BD053200004D
:103610008D330000F0B587B005AE31707370B270B5
:103620001B240A4D83B20393094FE0B2A847C0B2EE
:1036300000903300220003210398B8470134A4B25C
:1036400001361E2CF1D107B0F0BDC0460532000096
:103650008D33000010B582B080B2002300930022A9
:103660000821024CA04702B010BDC0468D330000B7
:1036700070B50B4B18600B4C210001200A4DA84778
:1036800021001E310220A847022301220A21012025
:10369000064CA047022301220A210220A04770BD48
:1036A000DC250020A0250020E134000015360000B4
:1036B000064A136A02210B4313620122044B1A705B
:1036C00019000B781342FCD17047C046000400403B
:1036D0000004004201230370002343708370C37011
:1036E00070470000F0B583B005000E00244B9847EA
:1036F000244B1B68DA070ED55B08012401221A420D
:103700000AD05B080134E4B20C2CF8D11E4B984768
:10371000142003B0F0BD00241A4A11680123A3400D
:103720000B4313601379013B1371174B9847142017
:10373000FF2CEED02C707378022B0AD001A9F378FD
:103740000B70E71DFFB23800104B98473800104B44
:103750009847B3781B04FE22D203134072781206F6
:10376000C02189040A40134332789206C02109051A
:103770000A4013430F2214401C436C600020C8E72A
:10378000B982000028000020F9820000D5890000DD
:1037900049890000037801331B02F82252011340CB
:1037A0001F2211400B43034A1381436853600020DA
:1037B0007047C04600040042044A137802210B43BC
:1037C000137053785BB2002BFBDB7047001800408E
:1037D00000B583B0124A936940210B43936101A95C
:1037E00000230B7005200F4B984705200E4B984780
:1037F0000E4A137801210B43137053785BB2002BF0
:10380000FBDB0B4B19004031002204C39942FCD171
:103810001022084B1A60084B984703B000BDC04601
:1038200000040040D58900004989000000180040CC
:10383000E025002000E100E0B937000010B51A4A89
:10384000146A80235B032343136203681B78DBB293
:103850009A0705D53C2205201A4223D1173021E0D2
:10386000016000234360836003764376C360837600
:1038700003614361C3760377036243623422835456
:1038800001328354836201328354C3620363013281
:10389000835401328354054B186080221205044B77
:1038A0001A60002010BDC04600040040CC29002052
:1038B00000E100E0F0B5DE4657464E464546E0B52D
:1038C0008DB00E00140001680D8B0A78D2B204236B
:1038D000B34005201D4206D00DB03CBC9046994631
:1038E000A246AB46F0BD13401730002BF4D1E2786E
:1038F000002A03D0E5790538002DEDD16079002844
:1039000000D09BE00193A0791F00002801D0802700
:10391000FF05A07B002800D094E00293E079002806
:1039200000D093E00393002A00D093E00493207921
:10393000002800D092E00593607B002800D091E041
:103940000693E07A002800D090E00793A07A002840
:1039500000D0802320780138C2B21720202ABBD89B
:1039600060780138C0B2814617204D46202DB3D86B
:10397000207A834617205D46082DADD85846002D85
:1039800002D00138C0B28346207B4001602505404B
:10399000AC46607A8246032055462840654605437A
:1039A0001006F822520510402A00024392464A4669
:1039B000D004F8221204104052461043019A1043DA
:1039C0000743029A3A43039D1543049A2A430598F4
:1039D0000243069802430798024313435A46900055
:1039E0001C2210400343B20089184B600BAB23220A
:1039F0001A7001325A700AA9A2780A709D5D2800D7
:103A0000234B98472800234B984709AB00225A7054
:103A100001219970DA70637C002B2BD1237D002B60
:103A20002FD1E37D0020002B00D155E709A9A37D0C
:103A30000B70607D184B984700204DE780200006F2
:103A4000019060E780208005029067E78020C00237
:103A5000039068E780225202049268E780225201B4
:103A6000059269E78022120106926AE780225200DD
:103A700007926BE709A9237C0B70E07B064B984704
:103A8000CCE709A9E37C0B70A07C034B9847C8E7FF
:103A9000D589000049890000CD8A0000F0B5DE46D6
:103AA00057464E464546E0B58FB006000D0014005F
:103AB0000768398B3B78DBB288225200AA40052088
:103AC000114206D00FB03CBC90469946A246AB4688
:103AD000F0BD0422AA4013401730002BF2D1E27847
:103AE000002A00D0A6E00093E27C002A00D0A5E0E6
:103AF00001932279002A00D0A4E00293227B002ABD
:103B000000D0A3E00393E27A002A00D0A2E004935D
:103B1000A27A002A00D0A1E00593627A002A00D0A0
:103B2000A0E00693227A002A00D09FE00793E27972
:103B3000002A00D09EE00893A279002A00D09DE0E0
:103B400009936279002A00D09CE00A93627B1900F5
:103B5000002A01D080210902A27B002A00D095E032
:103B60000B93E07B80229146002800D19946A07CEF
:103B700010229046002800D19846227D1720012A65
:103B8000A0D8002A00D02023607D80000C220240B3
:103B90009246207C0002E022D200104052460243AE
:103BA0009246A27D03201040524610438446627C18
:103BB00052039246C022D2019346524658460240D2
:103BC00060461043009A1043019A1043029A104332
:103BD000039A1043049A1043059A1043069A10431F
:103BE000079A1043089A1043099A10430A9A1043FF
:103BF00001430B9A0A4349460A4341460A43134389
:103C00002A0008329200D3510DAB00225A700121D4
:103C10009970DA70A378002B3CD1A17DEB005A1B80
:103C20009200B218D176227C5D1BAD0076193277F6
:103C3000002047E78022D204009255E780229204B8
:103C4000019256E780225204029257E78022120422
:103C5000039258E78022D203049259E7802292030C
:103C600005925AE78022520306925BE780221203F4
:103C700007925CE78022D20208925DE780229202DE
:103C800009925EE7802252020A925FE78022520187
:103C90000B9266E70DA963780B702078014B98476B
:103CA000BBE7C046CD8A00000368987AC009704718
:103CB00070B5040006680822054B1A60054D200007
:103CC000A8470028FBD1338802221343338070BDFC
:103CD00000E100E0A93C000070B50400066808217E
:103CE0008023074AD150074D2000A8470028FBD168
:103CF000C123B3713372338802229343338070BD82
:103D000000E100E0A93C000070B504000668074B24
:103D100098470023A382E382054D2000A84700288E
:103D2000FBD1338801221343338070BDD93C00009E
:103D3000A93C0000F0B583B00400019115000668AD
:103D4000114F2000B8470028FBD12379002B0AD05F
:103D5000012B16D11730012D14D80635AD00019B6B
:103D6000AB5100200EE01720022D0BD8074B019A13
:103D70009A4207D86B469B880C356D00AB530020E8
:103D800000E01A2003B0F0BDA93C0000FFFF0000D6
:103D9000F0B583B00400160001602E4A936920211B
:103DA0000B43936101A902230B7004202A4B98470F
:103DB00004202A4B98472000294B9847B378237159
:103DC00033796371274B1C60276833883B80B37855
:103DD000002B21D01720012B1CD13B889BB23B80AC
:103DE000F378002B03D03B88802213433B801E4D89
:103DF0002000A8470028FBD10022B16820001B4BFF
:103E0000984733790020002B04D07B888022D20190
:103E100013437B8003B0F0BD3B88042213433B80F7
:103E2000F3781720002BF5D10F4D2000A84700286C
:103E3000FBD10022B16820000C4B98470A4D2000AE
:103E4000A8470028FBD10122F1682000074B9847C2
:103E5000D7E7C04600040040D5890000498900002A
:103E6000093D000020260020A93C0000353D00004F
:103E7000F8B504000E0003791520002B00D0F8BD22
:103E80002768034D2000A8470028FBD1BE82F6E733
:103E9000A93C0000022A0BD00379002B05D0012B8E
:103EA00012D11633012A0DD802E01723022A09D8AD
:103EB000931C9B001950838A012191400B439BB2B4
:103EC00083820023180070471723FBE710B50468AE
:103ED00002290BD001228A4003231340E371C38AD5
:103EE00001228A4013439BB2C38210BD8023E37139
:103EF000F5E7000010B5144B1A681468D18A938A4C
:103F00001940207AE379034058B2002806DBD8072D
:103F10000FD5CB070AD40123237210BD4B0702D45F
:103F200080232372F9E713699847F9E79368984764
:103F3000F1E79B07F1D58B0702D402232372ECE74C
:103F4000D3689847F9E7C046202600200168072279
:103F5000CB691A42FCD17047F0B5DE4657464E4653
:103F60004546E0B58DB006000F0014003160080032
:103F70009E4B98479E4A116A851C0123AB400B4318
:103F800013620BA9237B0B701430C5B22800994B28
:103F900098472800984B9847207B0021974B9847DB
:103FA0003B681C209B0706D50DB03CBC904699464B
:103FB000A246AB46F0BD3B681738DB07F4D4306847
:103FC0008A4B9946984705008D498E4B9847AD001E
:103FD0008D4BEE5000233376737600257383B383C5
:103FE0002522B554336214333B6033689846180079
:103FF000C847814680230AAA137055700123937025
:10400000D570E069276A002800D1ACE00AAB1870CF
:1040100002230AAA5370000CC0B211007B4B9847D0
:10402000002F00D1A4E00AAB1F7002230AAA53702C
:104030003F0CF8B21100754B9847A38AF380E38ACE
:104040003381237E8022002B04D1714B9B789B0708
:10405000DB0FDA01A16823690B4313432422A25C1E
:10406000002A02D08022D2051343A26A13432C22D5
:10407000A25C002A03D180229204914202D18022C4
:10408000120513432D22A25C002A02D080221204C2
:1040900013432E22A25C002A02D08022D2031343B3
:1040A0004246126813434246136080235B0053600C
:1040B00048461430C0B2574B98470990FA239B00EA
:1040C00022685A43914663689B46534DA847009027
:1040D00001914B465800A847504F0022504B029088
:1040E0000391B8474F4E009A019BB0470490059149
:1040F000208EA8474C4B9A464C4A4D4BD047009ACD
:10410000019BD04700224B4BB04706900791484691
:10411000A84702000B0006980799D04702000B0041
:1041200004980599B847029A039B434DA847434B0F
:104130009847050080239B04A2689A421ED0030082
:104140004020FF2D00D92FE700240020FF251D402F
:10415000240625430004FF231B041840054343465F
:10416000DD60002020E700214046354B98474DE7B1
:1041700001214046324B9847070054E7FA26B60023
:104180005B465E430098019902000B00254CA04756
:10419000009001913000204B98470022294BD047D6
:1041A00002000B0000980199234CA04700221C4BF1
:1041B000B847224B9847041E0CD031000998224B77
:1041C00098470238001B2B00FF2D0CD8FF28BDD9C3
:1041D0004020E9E67100481E099B9C4660441A4B4A
:1041E00098470138EFE74020DEE6C04671700000D6
:1041F00000040040D589000049890000AD6E000030
:1042000075460000AD700000B4290020CD8A000082
:1042100000200041F189000059BB0000C5B4000036
:104220000000F03F3DA30000C5AF000095D626E892
:104230000B2E113E000024405DA90000F1BA0000E1
:10424000F96E0000000008405D8F000003681A7ED0
:10425000920707D502221A765B8B9B074120DB175A
:10426000184070475A8B520706D55968C0229202EF
:104270000A435A601820F4E70020F2E730B50268DC
:10428000002301240225117E21420BD1117E2942F7
:1042900006D101339BB201899942F4D8122002E081
:1042A000002000E0002030BD10B504686268802363
:1042B000DB02134363606162024B9847012323765C
:1042C00010BDC0467D420000F0B5DE4657464E4662
:1042D0004546E0B583B00600894605684C882B68E2
:1042E0001B01DB0F9A464B7A002B2BD16B68584A87
:1042F00013406B604B461B7A002B27D14B461B8823
:104300005B004A46527A92031343012213436B62C5
:104310003000504B984701905346002B03D04B463A
:104320005B88012B3BD06B68494A13406B60019B53
:10433000002B3AD0019803B03CBC90469946A24667
:10434000AB46F0BD897A444B9847CFE74B461B8874
:104350005B004A46527A92031343802212021343AF
:104360006B6230003B4B984701906B68384A1340B2
:104370006B600028DED13000384B98470190002850
:10438000D8D14B461B881B0A782213435B004A4650
:10439000527A920301210A4313436B62B8E76A68B9
:1043A0008023DB0213436B60C1E730002B4B98473F
:1043B00001900028BED1013CA4B28046284B9B4608
:1043C00015E0012C20D03000264B984743465F1C57
:1043D000BFB22823EB5C4A46526841465354300032
:1043E0001C4B9847013CA4B2002815D1B8465C4547
:1043F00014D06B8B9B0627D5F37A002BE3D0534662
:10440000002BDED1002CDED16A688023DB0213434F
:104410006B60013CA4B2EAE7B8460190B37A002B86
:1044200009D130000F4B98472823EA5C4B465B6864
:1044300041465A547EE730000A4B98476A68C023C9
:104440009B0213436B60ECE74123019372E7C04684
:10445000FFFFFBFF7D420000A94200004D4200002B
:10446000FFFF00004D3F0000F0B5DE4657464E46C8
:104470004546E0B583B006000F0005684C88324B16
:1044800098477B7A002B1DD16B68304A13406B60D4
:104490003B7A002B1BD03B885B007A7A9203134354
:1044A0008022120213436B623000294B984701901F
:1044B000002813D0019803B03CBC90469946A24610
:1044C000AB46F0BDB97A3000224B9847DCE73B8819
:1044D0005B007A7A920313436B62E5E730001E4B70
:1044E0009847031E0190E5D1A04600242033994649
:1044F000154B9B46164B9A46444515D06B8B4A4646
:1045000013421DD03000D8477B681A5D2823EA5437
:104510003000D047002806D16B8B01345B07EBD508
:104520001E23019300E00190B37A002BC2D030002B
:10453000054B98476A68C0239B0213436B60B9E739
:1045400041230193B6E7C0464D3F0000FFFFFBFF4C
:104550007D420000A94200004D42000010B5838B4F
:104560009BB20522002B01D0100010BD01338372D5
:10457000C372024B98470200F6E7C046C9420000EA
:1045800010B5838B9BB20522002B01D0100010BD0B
:1045900001338372C372024B98470200F6E7C046AC
:1045A0006944000001680722CB691A42FCD17047B8
:1045B00070B5040006683268458B838BED1AADB286
:1045C000838B013B9BB2838313011DD5C37A002BE0
:1045D00003D0838B9BB2012B10D0A38B9BB2002BFB
:1045E00002D1A37A002B1CD12000124B9847236ADA
:1045F0005D192823F35CDBB22B7070BD72688023D9
:10460000DB0213437360E8E7C37A002BE5D0838BAA
:104610009BB2002BE1D172688023DB0213437360ED
:10462000DBE72000034B98477268C0239B021343CB
:104630007360D9E7A545000070B5040005686B8B71
:104640005B0703D51E222523C25470BD468B838B86
:10465000F61AB6B2838B013B9BB28383044B984717
:10466000236A9E193378DBB22822AB54EDE7C046AB
:10467000A545000070B58000754BC45825682B68AF
:104680001B01DA0F637E267E1E40638B9BB2002BDC
:1046900003D1A38B9BB2002B23D1638B9BB2002B46
:1046A00008D0A38B9BB2002B04D12533E35C052BF0
:1046B00000D16DE0638B9BB2002B24D0A38B9BB207
:1046C000002B20D06B8B9B0600D581E0002A04D004
:1046D000A38B9BB2012B00D17AE041222523E25427
:1046E00011E02B7EDB0707D501232B766B8B9B0715
:1046F0002ED541222523E254A38B9BB2638325232D
:10470000E35C052B38D0638B9BB2002B07D0A38BC7
:104710009BB2002B03D12533E35C052B64D025230A
:10472000E35C052B13D02523E35C002B0FD0032380
:104730002B7500236383A3832533E35C412B03D0D4
:10474000A37A002B00D075E0730700D57BE070BD25
:104750006B8B5B07D0D518222523E2540023A3835B
:10476000A37A002BC8D020003A4B98476A68C02330
:104770009B0213436B60BFE71F33E35C002B03D046
:104780002000354B9847BEE72000344B9847BAE7E6
:104790001F33E35C002B00D08CE703332B75002321
:1047A000638325330022E254A37A002B07D101232F
:1047B0002B76F307A7D5E36820009847A3E72000EE
:1047C000244B98476A68C0239B0213436B60F0E751
:1047D0002423E35C002B03D12000204B984792E771
:1047E00020001D4B98478EE71F33E35C012B96D1C9
:1047F0002B7E9B0701D502232B7603232B750023E9
:10480000638325330022E254B30703D52423E35CFA
:10481000012B0BD0F30700D481E72423E35C002BAA
:1048200000D07CE7E3682000984778E72369200000
:10483000984774E72000074B98476A68E023DB023B
:1048400013436B6080E76369200098477FE7C046A9
:10485000B4290020A5450000B145000039460000FC
:1048600070B58000164BC45823689D7B227E637E02
:1048700013401D40EB0706D4AB070BD4EB0610D456
:10488000AB0615D470BD2000A368984701232268A9
:104890009373F1E72000E36898470223226893733B
:1048A000ECE7200023699847102322689373E7E719
:1048B000200063699847236820229A73E2E7C04684
:1048C0002426002010B50020014B984710BDC0469B
:1048D0006148000010B50120014B984710BDC0464B
:1048E0006148000010B50220014B984710BDC0463A
:1048F0006148000030B585B001AA0B4B32CB32C203
:10490000019B98420DD0029B984208D00023039A45
:10491000824202D0180005B030BD023302E001230C
:1049200000E00023DBB2F5E7A0C40000F0B587B0DB
:1049300004000D0016000800854B9847070005ABE2
:104940001B221A7001325A709A7003AB8022120136
:104950001A80802252015A80802292019A8000237C
:10496000A360E36023616361237663768200794B01
:10497000D4502560B378082B06D023712B880520EE
:10498000DB0705D507B0F0BD1720FA07FAD5F4E725
:10499000EB7B1730DB06F5D42B889B07F2D4337CF6
:1049A000002B79D1337F002B00D081E06A49086A5F
:1049B0007A0003ABD35A03430B62B378082B00D1C0
:1049C00086E001A933780B7005ABDF5D3800634BDF
:1049D00098473800624B98473189B3880B43B178C8
:1049E000B279114319437378002B02D080231B0145
:1049F00019432268D37B5BB2002BFBDB2980717BE0
:104A00004B1E99418900B37B002B01D00123194330
:104A10002268D37B5BB2002BFBDBFF232B710029C9
:104A200005D02268D37B5BB2002BFBDB6971B17AC6
:104A3000F37A002B01D010231943337B002B01D0D4
:104A4000202319432268D37B5BB2002BFBDBA971C7
:104A50002268D37B5BB2002BFBDB2379042B3FD096
:104A6000082B5ED01720002B00D08BE7D37B5BB2E6
:104A7000002BFBDB338D2B822268D37B5BB2002BB8
:104A8000FBDB738D2B832268D37B5BB2002BFBDBBC
:104A9000B38D6B83002075E702A901238B70002280
:104AA000CA70327E0A704B70307D2E4B984779E782
:104AB00002A901238B700022CA702432B218127826
:104AC0000A704B701F33F3181878264B98476DE720
:104AD000086A7A1C520003ABD35A03430B6270E797
:104AE000D37B5BB2002BFBDB2823F35C2B742268A7
:104AF000D37B5BB2002BFBDB2923F35C2B75226895
:104B0000D37B5BB2002BFBDB2A23F35C2B76226882
:104B1000D37B5BB2002BFBDB2B23F35C6B7600209B
:104B200030E7D37B5BB2002BFBDBB36A2B612268DF
:104B3000D37B5BB2002BFBDBF36AAB612268D37BD8
:104B40005BB2002BFBDB336BEB6100201AE7C04646
:104B5000F54800002426002000040040D58900000C
:104B600049890000CD8A000010B584B003AB002253
:104B70001A7003325A70013A9A70013ADA70274B70
:104B80001B78834207D0002807D1244B1B78002BC9
:104B900023D1224B187004B010BD03AB1B5C204A1C
:104BA000D25CFF2A00D1FEE7EFF3108251424A4166
:104BB000019272B6BFF35F8F00211A4A1170019CF7
:104BC0001749CA5C0132CA54002CDED00122154BB1
:104BD0001A70BFF35F8F62B6D7E703AAD35C104A9F
:104BE000D25C002A00D1FEE7EFF3108251424A4125
:104BF000029272B6BFF35F8F00210A4A1170029CC5
:104C00000749CA5C013ACA54002CC2D00122054BA4
:104C10001A70BFF35F8F62B6BBE7C046040F002077
:104C2000D82900200801002043060BD00F230340A1
:104C30005B00C00918180238830018188000024B66
:104C4000181870470020FCE78C0E0020F0B5D646FF
:104C50004F464646C0B589468D796BB2002B26DBA0
:104C600028005E4B984704000F272F40038A984680
:104C70004B461B889A46837C5B076AD4E36853449F
:104C80001E00E360A3689E4200D874E0E360A37C4A
:104C900001229343A3742368002B03D0E1682A0008
:104CA000002098471CBC90469946A246F0BD2800BB
:104CB0004A4B984704000F272F40038A98464B46DB
:104CC0005E88C3689C466644C66081688E4225D073
:104CD0008D1BADB2424B9D4206D91D0041461800C6
:104CE000404B98476D1AADB2A27C0023920707D5BE
:104CF000414628003C4B984789B24B424B41DBB2BE
:104D00005B00A27C02218A431343A3746268921958
:104D10002B0039003548364CA047C3E7837C9B07FE
:104D20000BD4837C0122934383740368002BB9D096
:104D30002A00310000209847B4E7837C0222934385
:104D4000837442689219002339002848284CA047F0
:104D5000A8E74368C268944663441E0041468068E1
:104D6000214B98470A007B1E9B01224959183000AD
:104D7000214B984782E74A469288524500D086E701
:104D80009E4200D183E79B1B9DB2154B9D4216D9D5
:104D90001D0041461800134B98476B1A9BB298456B
:104DA00014D9A37C04221343A3747A1E9201114BDD
:104DB000D218434639000D48104CA04772E74146CF
:104DC0002800094B98476B1A9BB2E8E76268921972
:104DD00039000648094CA04764E7C046294C00004A
:104DE000FF1F00003D92000069900000F0260020A7
:104DF000055E000030260020EDBD0000595E000079
:104E000010B50522054B1A70054C80212000054B7A
:104E1000984700212000044B984710BD8A0E0020BF
:104E2000F0260020595D00007F5D000070B5084C41
:104E300006212000074DA84704212000A847022191
:104E40002000054B98470220044B984770BDC04690
:104E5000F02600209958000079580000694B0000A6
:104E600070B5124B9B8C9B061AD41049D022CB688C
:104E70001340D02BFBD10E4C022120000D4B984744
:104E8000042120000C4DA8470C4A062120000C4BA1
:104E9000984706212000A84703200A4B984770BD79
:104EA00002491022CB681A42FCD0E4E70008004017
:104EB000F026002099580000795800002D4E00007F
:104EC00055580000694B000010B5064C0421200025
:104ED000054B984702212000044B98470120044BC2
:104EE000984710BDF026002099580000795800001E
:104EF000694B000030B583B004001E4B98478023F7
:104F00002268937201AD28001B4B984703236B70F6
:104F100029002000194B984719492000194B984740
:104F2000194B022200212000184DA847184B0022DF
:104F300000212000A847174B012200212000A8478C
:104F4000022200212000144DA84700220021200049
:104F5000A847012200212000A84721680B890F4A99
:104F60001A408023DB0013430B8100220C4B1A7084
:104F700003B030BD157D0000A55A0000B55A0000F1
:104F800070280020A95E0000DD500000B558000028
:104F9000D1530000E14F000005590000FFF3FFFF6F
:104FA0008A0E002010B50322074B1A70074C0849DF
:104FB0002000084B9847084B9A68002300212000E6
:104FC000064CA04710BDC0468A0E0020F0260020E7
:104FD00070280020A95E000058280020055E00000F
:104FE00010B589794BB2002B06DB0E4B1B78022BD8
:104FF0000FD0032B11D010BD0A4B1B78012B05D00D
:10500000042BF8D10848094B9847F4E7084B984718
:10501000F1E70422034B1A70EDE70348034B98476E
:10502000E9E7C0468A0E0020F0260020595D000006
:10503000A54F000070B5204B1B88204A9489E41AC4
:10504000A4B2002C18D11E4A11885B189BB21380A1
:105050001A4AD2889A4223D01A4B1B78002B1FD1B0
:10506000164B5B69002B23D09847002820D00022E4
:10507000114B1A80114B9C893F2C19D90022114BDE
:105080001A7040240C4D2B880C4A9268D2182300C9
:1050900000210D480D4EB0472B88E4182C8070BDC0
:1050A00004220B4B1A700B4907480B4B9847F6E745
:1050B0000122044B1A70E5E7860E002058280020D4
:1050C000880E0020840E0020F0260020055E0000DF
:1050D0008A0E002070280020A95E000010B50C0088
:1050E0002C4B1B78002B07D02B4B1B69002B00D0BF
:1050F00098470022274B1A702388082B02D0274B91
:10510000984710BD244A264B197811705978517070
:10511000D8780002997809185180587900021979D5
:1051200009189180D97909029B795B18D3801D4BAE
:105130009847002816D0184B1B787F2B15D8164B94
:10514000DB88002B22D00023174A1380174A1380D4
:105150000122104B1A704023114A00211448154CAB
:10516000A047CEE70D4B9847CBE700230E4A1380AC
:105170000E4A13800222074B1A704023084A00216E
:105180000B480C4CA0470C4B9847BAE70B4B984781
:10519000B7E7C0468A0E002058280020014E0000C4
:1051A00070280020A57D0000880E0020860E0020BB
:1051B000F0260020595E000035500000A54F000089
:1051C00010B5014B984710BD617D000010B504007B
:1051D00001000A480A4B984720000A4B9847837CF5
:1051E000DB070AD5837C0122934383740368002B79
:1051F00003D0C16822000120984710BDF02600208E
:10520000F95C0000294C000000207047024B1B682D
:10521000188A8004400D7047F0260020024B1B685E
:10522000188A80B27047C046F026002070B582B060
:10523000040001AD28000D4B984720000C4B984707
:105240002C700023EB700B4E290030000A4B98475E
:105250000F21214000223000084B984700222100F6
:105260003000074B984702B070BDC046A55A0000F9
:10527000CD510000F0260020B55A0000DD58000096
:10528000D5590000F0B583B005000F00140001AE41
:105290003000364B98473570082C13D8002201ABEC
:1052A0005A702800324B9847048203213940012963
:1052B00038D0022943D0002303293DD1042201AB79
:1052C000DA7032E0102C03D8012201AB5A70E8E703
:1052D000202C03D8022201AB5A70E2E7402C03D8FD
:1052E000032201AB5A70DCE7802C03D8042201AB07
:1052F0005A70D6E780235B009C4203D8052201AB9D
:105300005A70CEE780239B009C4203D8062201AB53
:105310005A70C6E7174A002394420DD8072201AB02
:105320005A70BEE7022201ABDA7001A91248134B92
:1053300098470023002806D0180003B0F0BD0322D0
:1053400001ABDA70F1E70F2129400B4C0C4B002226
:1053500020000C4EB0470022290020000A4EB04722
:10536000012229002000B0470123E5E7A55A0000EB
:10537000294C0000FF030000F0260020B55A000071
:105380004D4C0000B55800000559000010B5010053
:105390000148024B984710BDF02600202F5D000009
:1053A00010B504000F2303400020032B00D910BDCB
:1053B00021000448044B98472000044B98470120E3
:1053C000F5E7C046F0260020595D0000CD510000F1
:1053D00070B5344B1B78012B0AD0022B5FD0324BB7
:1053E0001B69002B00D0984700222E4B1A7070BD0D
:1053F0000D882D4B9B892D4A14886219934201DA3E
:105400001D1BADB2284B986800192A002849294B6A
:1054100098476419A4B2254B1C80402D0AD0224B1A
:105420009C815B69002B02D09847002814D0224B46
:105430009847DCE71C4BDA88204B1B881B199A42E3
:10544000EDDD194B9B89A3420CD04023184A002163
:105450001B481C4CA047CAE70522124B1A701A4B76
:105460009847C4E7104B5B69002B0BD09847002886
:105470000FD012490D4A0B8810881B180B8000238F
:105480001380E2E70522074B1A7000200E4B984765
:10549000ADE70522034B1A700B4B9847A7E70B4B60
:1054A0009847A4E78A0E002058280020860E002086
:1054B00070280020EDBD0000A54F0000880E0020E0
:1054C000F0260020595E0000A15300003550000076
:1054D00070B504000F2303400020032B00D970BDDA
:1054E0002000094B9847050021000848084B9847C1
:1054F000AB7C0120DB07F2D5AB7C01229343AB747C
:105500002B6898470120EAE7294C0000F02600208C
:105510007F5D0000F0B587B0050003910292019312
:105520000F2606400024032E02D9200007B0F0BD4C
:10553000644B9847041E00D0BDE02800624B98479A
:105540000700EFF310835A425341059372B6BFF33D
:105550005F8F00225D4B1A70059A837CDB0708D5AC
:10556000002AE2D00122594B1A70BFF35F8F62B656
:10557000DBE7837C01210B438374002A05D00122E1
:10558000524B1A70BFF35F8F62B6029B7B60019B28
:10559000BB600023FB600C9B3B600123039A13401C
:1055A0005A00BB7C02218B43134304229343BB74F8
:1055B0006BB2002B20DB019B002B6FD09CB2444BC5
:1055C0009C425AD9398A1C001800424B9847631AEA
:1055D0009AB23B8A9A4257D2BA7C04210A43BA74DF
:1055E000721E92013C49521831003C483C4CA04785
:1055F00044424441E4B298E7019B002B27D09DB27E
:10560000334B9D4206D9398A1D001800314B98470B
:105610006B1A9DB2BB7C9B0707D5398A2800314B9A
:10562000984789B24C424C41E4B2012020404000EE
:10563000BC7C02239C430443BC742B00029A3100BF
:105640002648294CA04744424441E4B26DE7BB7C64
:105650009B0705D5BB7C02229343BB740025ECE776
:10566000BB7C01229343BB740C9B002B25D02A00EA
:10567000002100209847012457E7398A2000194B60
:105680009847631A9AB2A4E71300029A31001348AC
:10569000134CA04744424441E4B246E7BB7C01229C
:1056A0009343BB740C9B002B09D02A0000210020DF
:1056B0009847012439E7002437E7012435E701241E
:1056C00033E7C0468D530000294C0000080100203C
:1056D000FF1F00003D92000030260020F026002031
:1056E000595E000069900000055E0000024B1B68D7
:1056F0008022104398727047F0260020024B1B68EE
:10570000987A4006400E7047F0260020014B9860C2
:10571000998170475828002070B50320164B984790
:10572000164C2268138901218B431381144A0331DB
:105730002000144EB047144A00212000B047134AFD
:1057400001212000B047124A02212000B047042165
:105750002000104DA84700212000A847012120006B
:10576000A84702212000A8470B4A06212000B04785
:1057700006212000A84770BD694B0000F0260020DC
:10578000C94E000055580000C1510000F54E000000
:10579000614E0000795800002D4E000070B582B0B7
:1057A000EFF310835A425341009372B6BFF35F8FF9
:1057B0000026184B1E70009C01AD2800164B984720
:1057C000AE70164E2A0016493000164B984730002E
:1057D000154B9847154B9B8C9B0614D41349D0222C
:1057E000CB681340D02BFBD10120114B9847114BB4
:1057F0009847002C05D00122064B1A70BFF35F8F2B
:1058000062B602B070BD09491022CB681A42FCD0C2
:10581000EAE7C04608010020B5640000F026002039
:1058200000500041C5640000D95E0000000800403F
:10583000694B00001957000010B50122034B9A7103
:10584000034B1B68002B00D0984710BD0010004090
:10585000B028002010B50B002E339B001A50AA224E
:1058600052004900835A034C095B0B4383520020CA
:1058700010BDC046C0C400004900064BCB5A0268A8
:105880009383AB214900425A1A4342520268138360
:1058900000207047C0C400004900054BCA5AAB2124
:1058A0004900435A9343435203689A820020704749
:1058B000C0C4000010B58C00A4183434A40004192E
:1058C000636040185930FF30037803498A5C134302
:1058D0000370002010BDC046D0C4000010B58B007E
:1058E0009B1834339B00C31800245C604018593067
:1058F000FF30034B9A5C037893430370002010BD84
:10590000D0C4000070B50F230B40C4186134FF34BD
:1059100025782F4EB65C35432570002A29D1002BFF
:1059200012D103250A24FF3406683555032A09D10C
:1059300049B2002944DB02685B01D3180A33FF3304
:1059400020221A70002070BD4CB2002C08DB5C01D4
:105950000568AC4664440A34FF3401252570E5E748
:105960005C010568AC4664440A34FF3402252570A6
:10597000DCE7012A1AD1002B05D102680C210A2389
:10598000FF33D154DEE749B2002907DB02685B012F
:10599000D3180A33FF3304221A70D3E702685B017D
:1059A000D3180A33FF3308221A70CBE7022ABDD17D
:1059B00002685B01D3180A33FF3310221A70C1E763
:1059C00002685B01D3180A33FF3340221A70B9E72B
:1059D000D0C4000070B50F230B40C4186134FF34ED
:1059E0002F4DAE5C2578B5432570002A29D1002BB8
:1059F00012D103258424640006683555032A09D191
:105A000049B2002944DB02685B01D3180933FF3334
:105A100020221A70002070BD4CB2002C08DB5C0103
:105A20000568AC4664440934FF3401252570E5E778
:105A30005C010568AC4664440934FF3402252570D6
:105A4000DCE7012A1AD1002B05D102680C210933A9
:105A5000FF33D154DEE749B2002907DB02685B015E
:105A6000D3180933FF3304221A70D3E702685B01AD
:105A7000D3180933FF3308221A70CBE7022ABDD1AD
:105A800002685B01D3180933FF3310221A70C1E793
:105A900002685B01D3180933FF3340221A70B9E75B
:105AA000D0C4000000230370437083700133C370BF
:105AB00070470000F0B50C780F23234064B2CA7819
:105AC000042A70D89200894DAA5897460268083374
:105AD0005B0100219954002282E05C010268944637
