S020000032303135303730382E3030315F48315F486561644374726C2E7372656370
S214000000E0490020E9900000E5900000E59000003F
S21400001000000000000000000000000000000000DB
S214000020000000000000000000000000E590000056
S2140000300000000000000000E5900000E5900000D1
S214000040E5900000E5900000F95B0000E941000043
S21400005055770000E59000003D1400004968000058
S214000060E5900000C1740000D1740000E174000047
S214000070F1740000017500001175000009180000F9
S2140000801918000029180000994B0000A94B000021
S214000090B94B000000000000000000002511000021
S2140000A00D78000069130000E59000004577000019
S2140000B00000000010B5064C2378002B07D1054B36
S2140000C0002B02D0044800E000BF0123237010BDBF
S2140000D0700100200000000084CC0000084B10B522
S2140000E0002B03D00749084800E000BF0748036814
S2140000F0002B00D110BD064B002BFBD09847F9E72C
S214000100000000007401002084CC00002CFF0300D7
S2140001100000000030B50EE0094A13685B00C35AC1
S21400012012685200074D525B9B1A1BB20B804B8025
S214000130063004312200541E002AEDD130BDC046E0
S214000140C40D00200000002010B54022044B5A6168
S214000150044B9847044B18600122044B1A6010BDEC
S21400016000440041AD2E0000CC0D0020C80D00203C
S21400017070B52B4B1A6801210A402A4C226085690B
S2140001801A68501C1860500080184402264A12193B
S214000190C020C00084466244AA601A6811401960F4
S2140001A0224B1B7E9B0712D5204B5B7E5BB2002B3F
S2140001B00DDB1E4B19691E4A0A401A611A7E02217F
S2140001C00A43D2B21A761A7B01210A431A731948D7
S2140001D0194B984705281AD0184B9847184B1860A3
S2140001E0104C226853009B185A020F4DAD18206819
S2140001F0144B98470100802252002800124B984763
S2140002002068124B98470122114B1A6070BD094CAA
S2140002102000104B98472000074B9847DCE7C04665
S214000220BC0D0020C00D0020B001002000400042A0
S214000230FFFF0FFF18110020B9150000AD2E0000BB
S214000240B40D0020092D000015010000152D00003A
S214000250D00D002045160000F0B5D6464F4646465F
S214000260C0B58AB0039191460E0000286BD0002AD4
S2140002706BD0002108E0CF0004AB9C466744002208
S21400028000233A607B6001310229F4D913E0002292
S214000290835E5B431C00DD17F10004AB9C466144A3
S2140002A00A684B6812196B410A604B6002300136CF
S2140002B0022EECD93E00771E002E01D00026F7E76E
S2140002C0370037E0FB0004AA944663449846039A36
S2140002D000234146086849681D4CA04704000D00ED
S2140002E043461C605D60BB004B449846194918683D
S2140002F0194B9847194B9A46984700900191200051
S2140003002900174B9847174B9847D0470022164BA3
S214000310164CA04702000B0000980199144CA04709
S2140003200022FF239B05134CA047134B98474346D8
S21400033018600137022FC5D930000AB01CBC9046A1
S2140003409946A246F0BD0226F6E70226F4E7C04626
S214000350D99800000000E04069A2000069C10000D2
S2140003609D9900009D930000C0FFDF40FDAE000099
S214000370DDA8000065B500000DC20000084B1B6834
S214000380002B0AD00022064B1A60064B1A68530050
S2140003909B185A020448801870470020FCE7C046A5
S2140003A0D00D0020C00D0020B0010020F0B585B0B3
S2140003B0204B9847011E3AD0002304E09800002402
S2140003C001AA84500133022BF8D9802040000CE0AB
S2140003D000200A5E01A89C002658B44662442250BB
S2140003E001330231022BF3D92800451E002801D024
S2140003F00023F7E7020016E00F495400635A1BB2C9
S2140004001D01ED1A960001ABF658F717FF233B4087
S2140004109B191B12ED18EE170F2333405B191B11A7
S2140004201BB263520132022AE6D905B0F0BD0520A0
S214000430FBE7C0467D030000C01000200048704760
S2140004400C110020022801D8024B1860014B1868D6
S2140004507047C046C40D002030B591B003AA0023F3
S2140004601370937000219380138151709172D17232
S2140004701173917351731174536193611177136201
S21400048053621385938520339371284B538501ADB2
S2140004900123AB70264C27492000274B9847246839
S2140004A02B79002B0FD1002101ABDB78002B01D07C
S2140004B02023194301AB9B78002B02D080235B00DE
S2140004C01943002303E01021EEE70133DBB2012BD2
S2140004D008D801AAD25C002AF7D0802252019A409E
S2140004E01143F2E7608901AB5A790A4393B203439A
S2140004F063810F4B1A68D37B5BB2002BFBDB138840
S21400050002210B439BB2138003AB588D0B4B9847CD
S2140005100B490C4B98470C4B98470C4B18600C4BF0
S21400052098470C4B186011B030BDC046E70300007A
S21400053034110020002C0042F94B000051A80000A6
S2140005400AD7A33C69A200006D990000B00D0020F8
S214000550AD2E0000B40D002010B582B00400684631
S214000560074B984727236A465370253B9370002312
S214000570137069462000034B984702B010BDC04672
S214000580F11400000115000000B587B001226B468B
S2140005901A70002369464B708B704A718B71CB7151
S2140005A00593CA700B71C0239B000B81064B1B681A
S2140005B01A330393054BC022D20094466344049337
S2140005C0034B984707B000BD50110020B001002033
S2140005D0F916000070B50F4C20000F4B98470F4DD2
S2140005E028000F4B9847290020000E4B98470E4BCB
S2140005F0A3600220227C0243227422780B498B5C83
S21400060003438B5420000A4B98470A4B98470A4BE3
S214000610186070BD1811002059050000D010002089
S21400062089050000A517000071010000400E00209B
S214000630B9150000AD2E0000B00D002010B58CB02E
S2140006406846354B984703216B46197000236A4667
S214000650537001226846C274029343800233C37506
S2140006600373802040006C46E081002020712374D4
S21400067063742A33E154013B0021E154A2742A2317
S214000680E254264C6A4621002548264B9847A37814
S2140006907022934320221343A370A3780F22934320
S2140006A002221343A370204B5B781B071B0F032B00
S2140006B005DD1B4B1A68937870218B439370184B9B
S2140006C01A68537E5BB2002B22DB00210029F8D18A
S2140006D080200004154B18600F239375137613784B
S2140006E002200343DBB213700D4B1B685B7E5BB2CC
S2140006F0002B0FDB0B00002BF6D1062200210C4846
S2140007000C4CA0470C2200210B48A0470CB010BD93
S2140007100121DBE70123EEE7710F000000400042F5
S21400072050110020B90F00001820004100E100E041
S214000730C01000209FC300000C11002030B583B00D
S21400074001AC2000094B98473423A3700023237084
S21400075002226270E370064D21002800054B984780
S21400076017212800044B984703B030BDD939000044
S21400077004110020E9390000593A000000B583B0A2
S21400078068460A4B984703236A46D3703D33137076
S2140007903F3B53701371937005490648064B9847C4
S2140007A0064B9847064B186003B000BD9D1100002D
S2140007B000480042E0100020B1110000AD2E0000FD
S2140007C0CC0D002010B5074C00212000064B9847A2
S2140007D02000064B98478022120200212000044B7E
S2140007E0984710BDE0100020851200004912000056
S2140007F09512000070B588B00023002B54D007AACD
S21400080000255570032393702C4E2D4930002D4B38
S214000810984701AC2570012323720495A022D200CC
S2140008206282802252012282102222751032627564
S2140008308022520402926A4655709370D5701370E7
S21400084069460520204B98472200002130001F4BA8
S21400085098473268537A5BB2002B2ADB0025002DBE
S214000860F8D11369012633431361144C002218494A
S2140008702000184B9847637E012213436376236853
S2140008805E7180225204144B1A602268537A5BB25F
S214000890002B10DB2B00002BF8D1137802210B4322
S2140008A0DBB2137008B070BD002107AAD154013323
S2140008B0A3E70125D3E70123EDE7C0468C0100201E
S2140008C0004400424D0A000085900000E10A000046
S2140008D049010000A577000000E100E00123034085
S2140008E0034A51789B013F200840184350707047D8
S2140008F000480042022802D8C0B2014B5870704728
S21400090000400042014B18607047C046B80D0020FA
S214000910064B1A78064B4D215A5402315B5CDB07B6
S21400092003D401239340024A136170471811002034
S2140009300048004110B5284B1C68284B984701001A
S2140009402000274B9847274B1B6898420AD8264B0F
S2140009501B68002B0DD0254B9847254B1B68002B9A
S21400096013D110BD234B98471C4B98471A4B186061
S214000970EDE7214B98470400204B98470200802162
S214000980490020001E4B9847E7E71E4B1C68134B98
S214000990984701002000124B98471B4B1B68984253
S2140009A0DFD94022194B9A61114B1B68022B08D8DD
S2140009B00F4A136801331360084B9847114B1860B1
S2140009C0CFE70B4B1B68092BF6D8114A0E4B1A6063
S2140009D00022074B1A60EFE7B40D0020AD2E000092
S2140009E0B92E0000B00D0020B80D0020AD030000A9
S2140009F0C80D0020110900007D0300003D04000022
S214000A0059020000CC0D00200800002000440041E0
S214000A100F27000010B5006800230022002B0AD024
S214000A20437A5BB2002B0EDB0023002BF8D1D2B248
S214000A300270002010BDCC5C002C02D004249C4028
S214000A4022430133EAE70123EFE70000F0B5C6468C
S214000A5000B582B0050014000160002201AB1A70D8
S214000A60194B994201D000231EE0184A116A8023D0
S214000A709B020B431362637801AE337031001F2074
S214000A80134B984698471F20124FB847A3783370E9
S214000A9031002020C0472020B847E4E79A00AA1873
S214000AA0002151600133DBB2042BF7D900232B76EB
S214000AB06B76094B1D6021002800084B984702B052
S214000AC004BC9046F0BDC04600440042000400400E
S214000AD0A18F0000198F0000D4290020150A0000FD
S214000AE030B504685368107A002802D080200003CE
S214000AF00343D0680343108A558A2843034310787B
S214000B000343507D0343607A40B200280DDB00208B
S214000B100028F8D1081D80000351137D013BDBB28D
S214000B20641820342370002030BD0120F0E7000058
S214000B30F0B5D6464F464646C0B596B082460F003C
S214000B400368994615A93B780B701E20B54B98474D
S214000B501E20B54B98472C23FB5C002B54D02B2231
S214000B60BE5C3D7B7519EDB25B19DBB2984603E0BF
S214000B700135EDB20136F6B2454519D20F243440A0
S214000B803B7BE4185022A94901A8A94B9847132C8F
S214000B90EED8A40001ABE05800236A465370D37029
S214000BA0937001331370C0B26946A24B9847DFE7D3
S214000BB0FC8950229D4901A89D4B9847132C14D9B7
S214000BC07B7D9B00DBB24A461370BA7DD2010123BF
S214000BD0FB561343DBB24A4653703B79342B00D99D
S214000BE0B9E19B00944AD3589F46A40001ABE05855
S214000BF000236A465370D370937001331370C0B2EB
S214000C0069468C4B9847DBE73C7B5022874901A816
S214000C10874B9847132C16D9FC895022834901A884
S214000C20834B9847132CCBD8A40001ABE058002385
S214000C306A465370D370937001331370C0B269461E
S214000C407C4B9847BCE7A40001ABE05800236A46FB
S214000C505370D370937001331370C0B26946754BEE
S214000C609847D9E70222102001231AE07B7C3A7CC1
S214000C70102016E006221020012312E00822102081
S214000C8000230EE00022302000230AE0002220206D
S214000C90002306E000220020002302E004221020A9
S214000CA002231B0170210B4013434A469370FB7DC1
S214000CB03F2B06D9172016B01CBC90469946A24674
S214000CC0F0BDD37053461B685B7E5BB2002B27DB00
S214000CD00022002AF6D17B8803432421795CC900D0
S214000CE00B43397D89000B43B97C49000B43F97CE3
S214000CF00B4349468B803B7E002B00D1B0E010288A
S214000D006CD00FD9202830D0302800D0A8E0F97C4D
S214000D10002920D0F9698031FF2913D91720CAE7A6
S214000D200122D6E7002800D09AE0F97C00294AD0B4
S214000D30F96980200001844661444048814237D9E1
S214000D401720B8E7396A7F2901DD1720B3E780311D
S214000D5001DA1720AFE7F969FF2901DD1720AAE7B6
S214000D60396AFF297CDD1720A5E7F97C002914D015
S214000D70F96980208000844661443148814201D967
S214000D80172098E7396A2F48814201DD172092E73D
S214000D902D48814201DA17208DE72949F8698842F3
S214000DA001DD172087E7386A884259DD172082E779
S214000DB0396A2648814201DD17207CE724488142B3
S214000DC001DA172077E71D49F869884201DD172008
S214000DD071E7386A884243DD17206CE7F97C002902
S214000DE014D0F96980200002844661441948814283
S214000DF001D917205FE7396A1748814201DD1720BD
S214000E0059E71648814201DA172054E71149F86974
S214000E10884201DD17204EE7386A884220DD172019
S214000E2049E7C046A18F0000198F000084C4000067
S214000E308DC3000085900000B0C30000FF0F0000C7
S214000E40FF030000FF01000000FEFFFFFF07000099
S214000E5000F8FFFFFFFF0000FF7F00000080FFFF9D
S214000E6051460968497E49B2002926DB110000294F
S214000E70F6D14A46137253461B685B7E5BB2002B64
S214000E801DDB0A00002AF6D1BB8B49468B835346EE
S214000E901B685B7E5BB2002B13DB11000029F6D1CA
S214000EA03B8C4A4613842C23FB5C002B01D0013B71
S214000EB0DBB20F2B07D91720FDE60121D7E7012269
S214000EC0E0E70121EAE72B22BA5C0F2A01D91720B6
S214000ED0F1E650460068407E40B2002839DA01202C
S214000EE00028F6D11205B9680A431B041343FA8991
S214000EF013433A7B13434A4613612A23FB5C13755C
S214000F000F2393751533FB5C002B0FD0FB8C154A13
S214000F10934222D84A4693843A8D80231B01D318E5
S214000F209BB210498B421AD84B46DA840E4B1B688C
S214000F30DB081B02E022D20013400C490A6849680D
S214000F404901D20E0A43D2B213434A461385002003
S214000F50B1E60800C4E71720ADE61720ABE6172079
S214000F60A9E6C046FF0F00002460800020608000D5
S214000F7010B50022002302704270002142800171E9
S214000F8003760262C26182600373C0246401C48176
S214000F90037443748374C37403752A24035543751A
S214000FA08375063C0355C2840285C1752B23C15444
S214000FB00133C15410BD000070B501601C4C256A99
S214000FC080235B022B4323620B78DB0701D50520C9
S214000FD070BD0B789B0701D51C20F9E75378037189
S214000FE0002B04D113490B6C042423430B64002309
S214000FF005E0991C890000240C500133DBB2022B5B
S214001000F7D900238376C376038303770A4B1860E9
S2140010102A23D35C002B05D1137D002B02D101338C
S214001020437701E0002343771100044B9847CFE74E
S214001030000400400008004070110020310B000042
S21400104070B58000364BC45823681D7EEDB2EA07A3
S21400105005D5E27ED20702D5A27ED20716D46B074C
S21400106008D5042322681376E37E9B0702D5A37E69
S2140010709B074CD4AB0708D5022322681376E37E81
S2140010805B0702D5A37E5B0745D470BD01221A76A6
S2140010902268537E5BB2002B27DB00210029F7D1A4
S2140010A06069831C6361538B9BB20380238B013B77
S2140010B09BB22383002B1ED0637F002BCFD02668E5
S2140010C0727E52B2002A12DB08000028F8D1327B6A
S2140010D002210A43D2B232732268527E52B2002AEA
S2140010E007DB0200002AF7D1B9E70121D6E718008E
S2140010F0EBE71A00F6E7237F052BB0D10023237712
S2140011000133226893752000A3689847A7E720005C
S214001110E3689847AEE7236920009847B5E7C046DE
S2140011207011002010B50020014B984710BDC04636
S214001130411000000368DB795BB2002B01DB002066
S21400114070470120FCE7000070B5040006684B7885
S2140011500371002383718B79002B00D004230A7857
S21400116015008878002802D004251543EDB20A79C8
S214001170002A01D0102215434A79002A01D00822FD
S2140011801543DBB233702000034B98470028FAD192
S214001190EDB2757070BDC0463511000000230370B7
S2140011A001224270837003714371C370837170476C
S2140011B030B583B00500140001601D4A106A802314
S2140011C0DB02034313620B789B0702D51C2003B097
S2140011D030BD0B78DB0701D50520F8E7E37801A9D9
S2140011E00B702120134B98472120134B9847002360
S2140011F06A465370D370012269460A708B700220CB
S2140012000E4B9847210028000D4B984723786B71AA
S214001210002306E01A1D9200AA180021516001332F
S214001220DBB2022BF6D9074B1D600020CFE7C04685
S21400123000040040A18F0000198F00008590000078
S214001240491100007411002070B5040005686B7821
S214001250027913436B702000084B98470028FAD198
S2140012602B7802221343DBB22B706379002B04D158
S214001270034A136C04210B43136470BD3511000040
S214001280000800400268537801210B43DBB253701C
S2140012907047000070B50400160005682000064B75
S2140012A098470028FAD1A379002B02D12E8100207E
S2140012B070BDAE81FBE7C0463511000070B58000FA
S2140012C0274BC4582568AB79DB0707D50123AB71DC
S2140012D02300143302D0637C002B34D1AB799B07F8
S2140012E030D50223AB71A3899BB2002B24D0E389AF
S2140012F09BB25A1C92B2E2815B00A2689446634499
S2140013001B889BB2AB81A389013B9BB2A381A389B7
S2140013109BB2002B10D100222033E2541E3B2B71CF
S214001320AB71802189047E330E4AD15023001433DA
S21400133002D0A37C002B0AD12300143302D0237CD6
S214001340002B08D170BD0020A3699847C6E700208F
S214001350E3699847F0E7636900209847F2E7C046DC
S2140013607411002000E100E010B50020014B984702
S21400137010BDC046BD12000070B5104B9847104B0C
S2140013805B680024042C10D8DA0703D55B08013408
S214001390E4B2F7E70A4B5A680121A1400A435A60B3
S2140013A01A7A013A1A72012500E00025054B984783
S2140013B0002D00D1FF24200070BDC046ED87000040
S2140013C00C0000202D88000070B505000C00184B9E
S2140013D098472B780F221A40164B3F215A541A6909
S2140013E028783E3981408A431A6122785201602368
S2140013F0134062781202FC2189010A401343A27846
S2140014009205C02109040A401343E278002A04D05A
S21400141007210A401343082213432279002A01D0E9
S21400142010221343034A5364034B984770BDC046CB
S214001430ED870000004800412D88000010B5264BBF
S214001440984726490B8C0F2213409B0024481858B7
S21400145003781A403F23CA540F33CA5CD2B20378CB
S2140014601B012049C91849881F4CE3185B88CB1A12
S2140014704361D3070FD501214E23184AD1543E3B72
S2140014804374037CDB0703D54368002B00D09847E2
S214001490164B984710BD93070DD502214E230F4AD1
S2140014A0D15400234374037C9B07F1D58368002B3B
S2140014B0EED09847ECE75307EAD504214E23074AB7
S2140014C0D154483B4374037C5B07E1D5C368002BCB
S2140014D0DED09847DCE7C046ED87000000480041B4
S2140014E0D40D002080110020F00D00202D88000073
S2140014F000230370437003228270C3700371704729
S21400150070B504000D00214B9847214B1B78002B2B
S21400151018D1204B5A6920210A435A61DA691039DA
S2140015200A43DA611C4B1A880E398A431A80012254
S2140015301A801A4A5A631A4A9A631A4A1A80144B2D
S21400154001221A70184B9847FF281AD020700F23D4
S2140015501840114B3F2298540132995C0220814377
S21400156099540121995429002000104B98470023D4
S214001570A36123789B000E4A9C500E4B9847002090
S21400158070BD0C4B98471420FAE7C046ED87000064
S2140015900C0000200004004000480041801100209C
S2140015A0F00D0020020F000079130000C9130000A0
S2140015B0D40D00202D88000070B504001A4B984703
S2140015C0637C052B08D0A3695B889BB2002B07D1F0
S2140015D0164B9847172070BD144B98470520FAE71E
S2140015E04026134B1E6022780F231340114D3F22D6
S2140015F0AB542378104AD25C072313404D22AB54D9
S21400160005236374207800010C4BC018A1693D3A8D
S2140016100B4B9847AB5D02221343DBB2AB55034B33
S21400162098470020D7E7C046ED8700002D880000C9
S21400163000E100E000480041400E0020801100203C
S2140016408DC3000010B504000C4B984722780F237A
S21400165013400B4A3F21535400214023D154094BD9
S214001660984723781B01084AD21852880749CB1896
S2140016705B88D31A63610423637410BDED87000092
S214001680004800412D88000080110020F00D002049
S21400169070B50500037801249C40437C062B00D0DF
S2140016A070BD114B98472B780F221A400F4B3F21E5
S2140016B05A54596C802292040A435A640C4B984739
S2140016C000220C4B9A4206D8084B9B6A23409C4249
S2140016D001D00132F5E7074B9A4202D912236B7408
S2140016E0DEE705236B74DBE7ED870000004800416A
S2140016F02D8800000F27000070B50C7802880123A3
S2140017001C400125AA43224302804D78032215403F
S21400171004886D000626B4432C4304808D7815405B
S2140017200488ED001236B4432C430480CD78048838
S2140017302A401202174D2C40224302800C79028860
S2140017401C40A402144D2A40224302804C79028891
S2140017501C40E402114D2A40224302808A7901246B
S2140017601440028823401B030D4C22401343038081
S214001770CB7907221A4003885203DB04DB0C1343A1
S21400178003800B894380CB6843600B6983604B6999
S214001790C36070BDFFFCFFFFFFFBFFFFFFF7FFFF0F
S2140017A0FFEFFFFF8369427C052A0BD0002B03D195
S2140017B08161002005E0DB68DA68002AFBD1D96089
S2140017C0002070470520FCE7F8B580000C4BC75892
S2140017D03B68DE6A7B6B1E40BB6B1E40002400E04D
S2140017E001340B2C0BDCA300064A9D583542F7D07B
S2140017F0FB185B68380098473B68DD62F0E7F8BD89
S214001800D0110020D4C4000010B50020014B98472A
S21400181010BDC046C917000010B50120014B9847FF
S21400182010BDC046C917000010B50220014B9847EE
S21400183010BDC046C917000000B583B003006A4655
S214001840D01D017099B20122014B984703B000BD2C
S2140018500D300000F8B505000E001700032101400A
S2140018602120064CA04729002620A0473900242026
S214001870A04731001F20A047F8BDC0463918000019
S21400188010B582B081B26B46DC1D01222000024BEF
S2140018909847207802B010BD952F000010B50020A4
S2140018A0054CA04720239843C1B20020034B98471D
S2140018B00020A04710BDC04681180000391800005F
S2140018C010B50220014B984710BDC0468118000095
S2140018D030B583B0104B98476B46D87107331B78EA
S2140018E0DB0703D40024200003B030BD03200B4BDD
S2140018F09847041E0DD0022807D800210020084D66
S214001900A84707212620A847EDE7042801D1013C77
S214001910F3E70024F1E7C046C11800008118000074
S2140019203918000070B5FD20044CA0470500FE20C5
S214001930A0470002284380B270BDC0468118000050
S21400194010B50A4B98470A4B9847C0B2094B187017
S21400195000212A20084B984773226F210720074B47
S2140019609847074B9847074B186010BD9D18000016
S21400197025190000450E00203918000055180000F3
S214001980AD2E00005C0E0020024B1878C0B200227C
S2140019901A707047540E002010B504000B4B1870D8
S2140019A0C30702D4A30708D410BD01210120084BA9
S2140019B098470220074B9847F4E701210220044B82
S2140019C098470220034B9847EEE7C046550E002086
S2140019D091380000C52E0000014B18607047C046C5
S2140019E01C00002010B5434B1C68434B9847010071
S2140019F02000424B9847642800D879E0404B1B787B
S214001A00002B63D03E4B1B78DB0728D43C4B1B785F
S214001A109B072BD40020002831D1394B1B78002B94
S214001A2032D1384B9847002000285FD0032303406C
S214001A30013B35499C0062580132625033490968BF
S214001A408A4204D9324A107000212F4AA1502A4BEC
S214001A509847284B18602E4B1878C0B210BD31221C
S214001A60022101202B4B9847C0B2D4E73122022135
S214001A700220284B9847C0B24000C0B2CBE71E4BAE
S214001A809847254B1860CCE7234B1C681A4B9847A1
S214001A9001002000194B9847204B1B689842C0D97C
S214001AA0174B1B78DB0707D4154B1B789B0708D40E
S214001AB00022134B1A70B4E700210120184B9847F8
S214001AC0F2E700210220164B9847F1E70D4B9847A6
S214001AD0AAE70133022BBAD89A000B495258002ABB
S214001AE0F7D098004258013A4250F2E70023F1E757
S214001AF00020B3E75C0E0020AD2E0000B92E0000DB
S214001B00550E0020D1180000480E002018000020B6
S214001B10540E002001370000580E00201C00002044
S214001B209138000071B5FFB004000D001600802249
S214001B3092000B4968460B4B984700220AE0230A9E
S214001B4029784B4024025B0069465B5E5C40A4B289
S214001B5001320135B242F2D320007FB072BDC046DA
S214001B6004C500008DC3000010B5040001230370F7
S214001B70C378FF228270BF3A9343383A93431832B1
S214001B809343C370C823C380B43B8380014B9847FC
S214001B90A06010BDAD2E000092B282808A1AC2806C
S214001BA07047000070B504000D00084B9847A06011
S214001BB0E37808221343E370FF2D01D8257070BD2B
S214001BC0DBB220221343E370F9E7C046AD2E0000D7
S214001BD070B504000323C356002B00DB70BD314BE9
S214001BE002681A42FAD0304B984705000100A068F8
S214001BF02E4B9847E3781A0724D5A288904218D827
S214001C00DB06EBD4E37810221343E370A17840227E
S214001C101340C8094A09002810D1D2012448844636
S214001C2062441F20084001218140002B08D19161A9
S214001C30D4E7A56008229343E370CFE70022F0E7DD
S214001C405161CBE7E28890420ED92378002B01D071
S214001C50013B2370A560134B22681A42BED0E3787E
S214001C6008221343E370B9E7DB06B7D5A078E3781C
S214001C705B06DB0FC109420900290FD1D2010C49CE
S214001C808C4662441F21014001208840002B07D06B
S214001C909061E37810229343E3709FE70022F1E718
S214001CA05061F6E7FF000020AD2E0000B92E0000C0
S214001CB00044004110B50024002C00D010BD630085
S214001CC01B199800024BC018024B98470134F3E7E3
S214001CD0E8130020D11B000010B50D4C20000D4B62
S214001CE098472323A370E37840221343DBB22022D5
S214001CF01343DBB2802252421343E3708A32064912
S214001D002000064B984701212000054B984710BD40
S214001D10E8130020691B0000DE030000991B00008A
S214001D20A51B00004004F0235B031840C9430903C9
S214001D30F8235B0219400843034B01001940034A8D
S214001D40916183435361704700F01F0000440041D7
S214001D5010B51B4A93889BB2591C89B29180D288D1
S214001D6092B2934203D9164B1B681B0500D410BDD4
S214001D70134B00229A801B685B02F8D510490B684B
S214001D80DB03DB0E01331F32134008681A030D4CC9
S214001D90204002430A600A689202D20E9342E6DDB1
S214001DA00A00096823000B40136013681B021168C1
S214001DB0DB0F9B05044801400B431360D7E7C04682
S214001DC0F4130020FF0FFEFFFFFFBFFF70B5214991
S214001DD00B681B07DA0E0F2313400A680F20824396
S214001DE013430B600B681B0722D01A4A11681A4B64
S214001DF00B401360194B9847164C20680007000FDD
S214001E002368DB03DA0E23681B06190F4E1C2568B1
S214001E100F2333401B01F026B5432B43236093006A
S214001E20E3185B18197AC9B20D4B9847206870BD45
S214001E300B0009680F2291430E3A0A431A6019688C
S214001E40F022914319601968802212010A431A6031
S214001E50D0E7C046F4130020FFF7FFFF511D000037
S214001E60251D0000C3070FD404220E4B9A6183077A
S214001E700ED4802212010B4B9A6143070DD58022A7
S214001E809203094B5A6170470422064B5A61EEE7EB
S214001E9080221201034B5A61EFE780229203024B25
S214001EA09A61F0E78044004100440041010E1F2380
S214001EB01940054A1172010C19405172010A194065
S214001EC091720340D3727047F4130020034A1168DE
S214001ED08023DB030B4313607047C046F4130020D7
S214001EE010B5244C382200212000234B98470020B0
S214001EF0224B984722680F239A430E3B13432360D6
S214001F002268F0239A43226022681D4B1340236008
S214001F1022681C4B134023603223E3800023E372C5
S214001F20A372637223721F22E2731120A0730E2124
S214001F3061732373E274A07460742174E275A275F1
S214001F4062752175E276A27661762376E377A277CC
S214001F506377237722680C4B1A40C0231B03134376
S214001F60236020680007000F217AC9B2074B984704
S214001F7010BDC046F41300209FC30000651E00007D
S214001F80FFFFBFFFFFFF7FFFFFFFC1FF251D000014
S214001F9030B505000023002205E0E85C4240044C12
S214001FA0A25C0133DBB28B42F7D3100030BDC046D3
S214001FB074C8000010B50A4B00221A705A708221AD
S214001FC05A54084B1860002809D0074C803221006C
S214001FD0064B9847064B1C608022064B1A6010BDC5
S214001FE0E0110020600E002030140020F16E00008A
S214001FF02C140020B014002070B504000D00042935
S21400200031D90378FF2B01D000202DE04318013B87
S2140020101B78FE2B01D0002026E001300339C9B220
S214002020134B9847AB1EE35C984201D000201BE0A0
S214002030A3782E006A1F934201D0002014E0322BB2
S21400204013D80C4B62781A70053D5D70032305E0CB
S214002050D81EE15C074A121891700133B21E9342F3
S214002060F6DB012000E0002070BD0020FCE7C04643
S214002070911F0000E0110020F0B585B00122CB4B87
S2140020801A70CB4B1A781300403BD9B2502900D9AE
S21400209009E38B00C749CB589F46C54B5B78002B9E
S2140020A003D00022C14B1A7046E1C14B02218222A6
S2140020B09954813A81315A5401315A543CE1BC4B0F
S2140020C05B78042B03D00022B84B1A7034E1B84B6F
S2140020D00021822299549A1C9878DB781B020343CD
S2140020E0907800040343D07800061843B24B984714
S2140020F022E1AF4B5B78012B03D00022AB4B1A706A
S2140021001AE1AB4B0021822299549878AB4B984742
S21400211012E1A74B5B78002B03D00022A34B1A706A
S2140021200AE1A34C01228223E254A54B984783235D
S214002130E05401E19E4B5B78032B03D000229B4BBF
S2140021401A70F9E09A4B0021822299541A79D978AC
S21400215098789C4B9847EFE0954B5B78012B03D023
S2140021600022924B1A70E7E0914B0021822299548C
S2140021709C782000944B9847844200D1DCE00022F3
S2140021808A4B1A70D8E08A4B5B78002B03D000226B
S214002190864B1A70D0E08D4B98470700844C062279
S2140021A08223E2548A4E8B490068B0478A4DA8477E
S2140021B080B28323E054000A230083335870854995
S2140021C07868B047A84780B28523E054000A230009
S2140021D085335870B8687F49B047A84780B28723D0
S2140021E0E054000A87346070A6E0714B5B78012BE0
S2140021F003D000226D4B1A709EE06D4B00218222A8
S21400220099549878754B984796E0694B5B78052B00
S21400221003D00022654B1A708EE0654CE578237972
S2140022201B021D436679A3791B021E4300228223EC
S214002230E254A3786A4A107818406A4B9847A07808
S2140022403100694B98470220684B9847A0782900D0
S214002250674B984770E0564B5B78032B03D0002201
S214002260524B1A7068E0524B0021822299541C7916
S214002270240224B2D9780C43E317E2185A405D4B87
S2140022801B889A420BDC4A4DA878252202215A4B1D
S21400229098470419A1B2A878554B98474CE0444B90
S2140022A09B784F4A107818404E4B9847EBE7404BC8
S2140022B05B78022B03D000223C4B1A703CE03C4B70
S2140022C0002182229954D97898784C4B984733E06D
S2140022D0374B5B78032B03D00022344B1A702BE06D
S2140022E04D2A1AD0712A0FD0722A18D006223049E9
S2140022F000208223C854CB1C92B288780221009119
S21400230001313F4CA04717E0294B9B78344A1078A0
S2140023101840344B98471E22E9E70822E7E72022B8
S214002320E5E7234BDB78FC2B08D8214B5B78022BA8
S21400233008D000221D4B1A7005B0F0BD00221B4BC2
S2140023401A70F9E74F2A0DD003221949002082237C
S214002350C854CB1C92B28878012100910231284CD7
S214002360A047E9E7124AD17803230B40D370042232
S214002370EBE70F4B5B78042B03D000220B4B1A7055
S214002380DAE70B4A00218223D154D31C907803222B
S2140023900092183203311A4CA047CDE7044B5B7805
S2140023A0022B2FD00022014B1A70C5E764130020C1
S2140023B0E011002004C70000AD1E0000651E0000EE
S2140023C08919000055180000450400003D0400006F
S2140023D069A2000000401C466D9900000939000003
S2140023E0200000209919000061380000C52E00006A
S2140023F01D3800002200002001370000E9370000E9
S2140024003D360000AB4B002182229954D97898784B
S214002410A94B984790E7A74B5B78012B03D0002287
S214002420A64B1A7088E7563AD3B2092B09D89A00F9
S214002430A34B9B589F4629220DE006220BE008225C
S21400244009E0002382229B498B549C4A137073E751
S214002450252200E02722974B98780221994B98472F
S2140024600390431C0BD0934B02218222995403AA5B
S2140024701078813158545178842299545CE70022B0
S2140024808E4B1A7058E78B4B5B78012B03D00022DB
S2140024908A4B1A7050E7592A05D05A2A15D0582A5E
S2140024A015D0322200E02D22824B98780221854BEF
S2140024B098470390431C0CD07E4B012182229954EE
S2140024C003AA11788322995436E73122ECE72E22AC
S2140024D0EAE70022794B1A702EE7764B5B78022BE0
S2140024E003D00022754B1A7026E7724BDA78332A2F
S2140024F000D921E798780221724B98470390431C35
S21400250000D119E76B4B1B786F2B05D0702B0CD0C6
S21400251000226A4B1A700FE7664B012182229954FB
S21400252003AA11788322995406E7624B022182227D
S214002530995403AA107881315854517884229954BA
S214002540FAE65C4B5B78002B03D000225B4B1A70DC
S214002550F2E603AC00232380564D04228233EA546D
S214002560213202210120574EB04700B22080227847
S2140025708323EA5462780133EA542522022102209A
S214002580B04700B2208022788523EA54627801336F
S214002590EA54D1E6474B5B78012B03D00022474B29
S2140025A01A70C9E6434B0021822299549B78002B6F
S2140025B003D0423A444B9A61BEE64022424B5A61EF
S2140025C0BAE63C4B5B78012B03D000223B4B1A70DB
S2140025D0B2E6384B0021822299549B78002B04D017
S2140025E080221205384B9A61A6E680221205364BE9
S2140025F05A61A1E62F4B5B78012B03D000222F4BAC
S2140026001A7099E62B4B00218222995498782F4B0A
S214002610984791E6274B5B78012B03D00022274B87
S2140026201A7089E6234B0021822299549878284B09
S214002630984781E61F4B5B78012B03D000221F4B87
S2140026401A7079E61B4B0021822299549878214B08
S214002650984771E6174B5B78012B03D00022174B87
S2140026601A7069E6134B00218222995498781A4B07
S214002670984761E60F4B5B78042B03D000220F4B84
S2140026801A7059E60B4B1A791202D878104359790A
S214002690124A11800021822299549A78104B1A709F
S2140026A0104B984748E60023822202498B54034A7F
S2140026B0137041E6E01100209138000064130020FA
S2140026C048C800000137000000440041050900002A
S2140026D069330000F5080000DD0800002200002035
S2140026E020000020D919000010B50400044B18681B
S2140026F0002803D08AB22100024B984710BDC0467E
S214002700600E0020F56D000010B582B001AC074BDE
S2140027101B882380064B18680021064B9847022129
S2140027202000054B984702B010BDC04670C8000098
S214002730600E0020116F0000E926000030B5C1B021
S2140027402C4B1B78002B4FD0FF2220AB1A702A4B45
S2140027501A7869460A708222995C6B465970002284
S21400276007E0901C244B9B1883331B786C4623543D
S21400277001320C008A42F4DB0231C9B268461F4BB4
S214002780984702346B4618550024012309E020A818
S214002790FD21C154591CC9B2023A42540233DBB27D
S2140027A00134822214498A5C033294420CDA6A4667
S2140027B0125DFF2AEBD0FD2AE9D0FE2AE7D020A939
S2140027C0CA540133DBB2EBE720ADFE22EA540133F4
S2140027D0DCB20B4B186800210A4B984721002800F2
S2140027E0094B984741B030BD084B98470122014B32
S2140027F01A70F7E764130020E0110020911F000014
S214002800600E0020116F0000E92600000927000076
S21400281010B5234B1B68002B40D09A8D92B22149ED
S21400282009688A423AD0586A411E9C8D1D4A146037
S2140028300A78FF2A0CD0FE2A0DD01B4C2478002CD8
S21400284026D1FD2A2AD15962FC3A174B1A7025E088
S214002850164B196022E0154B1868091A0131C9B2E7
S214002860134B9847002810D0124B9847124B9847A6
S214002870124C0B4B186880222100114B98470B4BCB
S2140028801C608022074B1A6008E00E4B9847EFE763
S2140028900138023202700022034B1A7010BDC04687
S2140028A0600E0020B0140020DC1100202C14002044
S2140028B0F91F0000792000003D270000301400209A
S2140028C0F16E00000927000010B50C4B1B681A06B5
S2140028D008D401220A4B1A60084A012311680B40EB
S2140028E0136010BD8169012213409B00054A9B5866
S2140028F04B600548054B9847EEE7C046680E00203B
S21400290024000020681B0020C8140020B915000011
S21400291070B5002407E09BB20B4A944663440B80D4
S214002920023104302A00551E002A07D00022835E9A
S214002930064A9342EFDD013424B2ECE7092C00DCB2
S21400294070BD034B9847FBE70080FFFFCC0C0000F0
S214002950CD1E000070B5224A138ADB08214C236086
S2140029600023138220490A6801331E0016401F4DBB
S2140029702E60806901320A6013409B001C4A9B58F7
S21400298083601C481C4B9847296848021B4BC0189C
S21400299009021B4BC91880221A4B984723681A4A0B
S2140029A099182C22FF32914202D89BB2174A138301
S2140029B0174B1B68002B05D10C4A802311680B436C
S2140029C0136070BD13488269084B1B689B00124950
S2140029D05B585360084B984700220D4B1A60F0E78F
S2140029E000340042640E00206C0E0020680E0020AA
S2140029F0C0140020301B0020B91500000015002070
S214002A001C19002011290000DEF4FFFF00300042F0
S214002A1024000020C8140020681B002010B58EB0CB
S214002A2001AA002300211370937093711381002074
S214002A3050709172D1721173917351731174536106
S214002A4093611177136253621385538593858023B0
S214002A50DB009380084C09492000094B9847226800
S214002A60D37B5BB2002BFBDB138802210B439BB2AC
S214002A7013800EB010BDC04600190020003400427E
S214002A80F94B00000F4B9B8ADB0619D50D4A938A3B
S214002A9010210B4393820C4B1B68002B10D00B4B62
S214002AA05B7C002B0CD0094B1A78094B4D215A54ED
S214002AB002315B5CDB0703D401239340044A1361B5
S214002AC07047C0460050004224000020301B002003
S214002AD000480041F0B589B006AE3000204B98475C
S214002AE002270223B37027337370002535701D4C00
S214002AF0310020001C4B98471C4B802292009446C5
S214002B0063441B4A136061465918516001226946A6
S214002B100A704D708D704A718D71CD71059580214A
S214002B204900684601816946C2700571114A0392E0
S214002B300493114D2800114B984729002000104B94
S214002B409847104BA360237C3B43237422780E499E
S214002B508B5C3B438B5420000C4B984709B0F0BD70
S214002B60F1140000301B00200115000000150020A5
S214002B70C014002030500042F0140020F916000067
S214002B80A517000055290000400E0020B9150000CA
S214002B9010B58EB001AA00231370937000219380A5
S214002BA0138151709172D1721173917351731174B4
S214002BB053619361117713625362138593852033B3
S214002BC09371094B5385094C09492000094B9847D6
S214002BD02268D37B5BB2002BFBDB138802210B43FE
S214002BE09BB213800EB010BDB70B00004C1B00202C
S214002BF000300042F94B0000F0B589B006AD280061
S214002C00204B984702270223AB7019336B700126BE
S214002C102E701D4C290020001C4B98471C4A013280
S214002C20FF321C4B1A60511CFF3159606B461E70F8
S214002C30002369464B708B700E718B71CB710593B8
S214002C408021684601816946C67043710392124B23
S214002C500493124D2800124B984729002000114B70
S214002C609847114BA360237C3B43237422780F497B
S214002C708B5C3B438B5420000D4B98470D4B98477D
S214002C8009B0F0BDF1140000C814002001150000C2
S214002C901C190020681B002008480042201B00204A
S214002CA0F9160000A5170000C9280000400E0020F5
S214002CB0B91500001D2A000010B5806909490B6887
S214002CC05A1C9B00084C1B594360012422400A6092
S214002CD00648074B98470022064B1A70064B1C7096
S214002CE010BDC046740E0020701B0020781B00200C
S214002CF0B9150000700E0020710E002010B5014BB3
S214002D00984710BD911600008002014BC01870470E
S214002D10941B00200022024B1A70024B186070476A
S214002D20710E0020740E0020F0B5C64600B588B0BF
S214002D3006AF3800274B984702260223BB702A337B
S214002D407B702B3B984601253B70234C39002000B6
S214002D50224B9847224A8023DB009C466244214B44
S214002D601A606146511859606B4641461970002337
S214002D7069464B708B70404608718B71CB7105931A
S214002D80802189006846018169464046C8704B71BB
S214002D900392154B0493154F3800154B984739008E
S214002DA02000144B9847144BA360227C324352B247
S214002DB021781248435C3343DBB2114E66602A43E7
S214002DC022742B43435420000E4B984708B004BC93
S214002DD09046F0BDF1140000781B0020011500009D
S214002DE0941B0020701B002034500042A0230020BB
S214002DF0F9160000A5170000B92C0000400E0020B0
S214002E00FD2C0000B91500000368DB695B07FBD1E9
S214002E107047000010B5034A136801331360024B75
S214002E20984710BD780E0020CD1D00000120704789
S214002E307047000010B584B000236A46D37006E0E1
S214002E409A1C92000021684611500133DBB2012B18
S214002E50F6D900236A4613809370012313710B4C36
S214002E600B4920000B4B984720000B4B984702223B
S214002E700A4920000A4B984702212000094B984730
S214002E8020212000084B984704B010BDB023002036
S214002E9000140040A14000000D3F0000152E000069
S214002EA079410000C1410000FD400000014B186858
S214002EB07047C046780E0020814201D2081A70473B
S214002EC0081AFCE770B50500044B1C68034B19682C
S214002ED02000034B9847A842F8D370BD780E002018
S214002EE0B92E000030B58FB001AA214B53600023E5
S214002EF09360137680218903116101214942D182B2
S214002F0091822531535493620831535401315354FE
S214002F1001315354D7331386B9330193154BD3611C
S214002F20154B136203231373144D15492800154BD4
S214002F3098472C682800144B9847236802221343AE
S214002F4023602868114B98471F2318401E3B834078
S214002F500F4A13600023628BD20606D40133074A59
S214002F60D2889342F7D3102363830FB030BDC04698
S214002F70480D00000200160002001700B8240020CA
S214002F80001400426D440000092E00009D740000ED
S214002F9000E100E030B589B00500141E6B46D9800C
S214002FA029D08BB29B18013BFF2B01DD002023E0CC
S214002FB005A928230B80273B4B806B4606334B60C6
S214002FC000230B724B728B720D480E4B98470028ED
S214002FD001D0002010E002A928230B804C804D6011
S214002FE000230B724B728B720548074B98470028DC
S214002FF004D1200000E0002009B030BD0020FBE72F
S214003000B82400204D4800002D48000030B5C5B05B
S2140030100D00141E1FD08B180133802252009342DD
S21400302001D9002018E0220001006B46581D0B4B0A
S214003030984701AB1D7041A928230B80631C4B8069
S21400304001AB4B600648074B9847002801D120008B
S21400305002E0002000E0002045B030BD8DC3000037
S214003060B82400204D48000010B590B08023DB0542
S214003070009300230193FF2269460A818B72CB726C
S2140030800122242168464254013142542532835499
S214003090013283540A93053283540C930D93C376FE
S2140030A0037603774376132282764377E1235B0227
S2140030B00893C4239B030393164B0E93164B0F9350
S2140030C080239B0103828023DB03059303222D23A9
S2140030D0C2546A4611491248124B98470028FDD13F
S2140030E00F4B1C682000104B98471F2318401E3BB0
S2140030F083400E4A13600A4B1B68DB69002BFAD12B
S21400310023680222134323600548094B984710B0F2
S21400311010BDC0460300360003003700001C004206
S214003120E0240020856C00009D74000000E100E0B3
S214003130B51F0000004870470824002030B593B043
S21400314002AA8023DB05029300235360FF2111812E
S2140031509372D372FE392420115401301154013079
S214003160135401301354936205301354536393631E
S214003170D3635361D37613761377537613339376EC
S2140031801E4B136284239B03D3601D4B136351773E
S214003190C023DB01138202312D23D15419491A486A
S2140031A01A4B9847002813D001AC802323707F3B2E
S2140031B063700023A370E37021000D20144DA84710
S2140031C021000E20A84721000F20A84713B030BDCD
S2140031D00D4B1C6820000F4B98471F2318401E3BC2
S2140031E083400D4A1360084B1B68DB69002BFAD13D
S2140031F02368022213432360D6E7C04640420F00EE
S21400320003002A000018004208240020856C0000F5
S214003210859000009D74000000E100E0F0B5C64611
S21400322000B58CB04A4E4B4930004B4B984706AA27
S2140032300024D471D47001251570547155709471A2
S21400324095725473947354741474D47303239370E4
S2140032501571013B13725572D572147315750833C8
S21400326093740627D774D575013353759775002167
S21400327030003A4B98476B46DC705C719C71DC7191
S2140032801C725C729C72DC721C735C739C73DD73C4
S21400329004236A46137454749474D4741475547561
S2140032A095759570157108231370577001213000BD
S2140032B02B4B984698476B469C759D70DC741D7129
S2140032C0DD7307236A46137057709474002130002C
S2140032D0C0471F4B1B681A8B9207FAD41A78022134
S2140032E00A43D2B21A701A4B1B681A8B5207FAD4CA
S2140032F01A7804210A43D2B21A70154B1B681A8B2F
S214003300D206FAD41A7810210A43D2B21A70104B99
S2140033101B681A8B9206FAD41A7820210A43D2B276
S2140033201A700B4B0F4A9A600220197E01431976D9
S2140033305A7E02435A761A68DB7E012B05D010238C
S21400334013820CB004BC9046F0BD80235B01F7E707
S2140033507C24002000500042493B0000C93B00008E
S214003360613D0000852A0000014B18607047C0468A
S2140033707C0E0020F8B5234B1B68002B00D1F8BD4F
S214003380214B984704000021204B9847052820D061
S2140033901F4B98471F4B18601B68002BEFD000216F
S2140033A020001D4B98471B4F39681C4D28001C4BAE
S2140033B0984701201B4EB047396889B228001A4B3F
S2140033C098470020B047402218492000184B9847DD
S2140033D0D5E7A28D40239B1A0E4A13601368002B74
S2140033E0D6D0002120000C4B98470A4B19680F4D89
S2140033F02800104B98474022290020000C4B984785
S214003400C6E7C0467C0E002035310000316F000054
S2140034104D7B0000800E0020116F0000C8230020A6
S214003420D17D000059340000393400003C240020CF
S214003430F16E0000317F000010B50400044B1868E0
S214003440002803D00A002100024B984710BDC04652
S214003450DC250020F56D00001B4B1A68002A19D0E9
S214003460002818D01168CB69002BFCD1486880234F
S2140034705B0203434B600123D3711368D9690029AB
S214003480FBD1D9690029FCD1596810480140596020
S2140034900023937170471168CB69002BFCD14868F4
S2140034A080239B0203434B60012393711368D96901
S2140034B00029FBD1D9690029FCD15968044801408C
S2140034C059600023D371E5E7DC250020FFFFFDFFF0
S2140034D0FFFFFEFF322805D88000034B1B589F468F
S2140034E0012000E00220704774C9000070B504ACEB
S2140034F02678314C2468002C5AD0372E5AD82F4CB8
S214003500FF2525706570023DA5700025E5702071C9
S21400351003291AD006291DD0022903D003242748E0
S214003520447102E00724254844712448002484712D
S214003530C171062912D8052912D2012910D01F48B8
S2140035400272002242720A240BE0701DC0B21B4CAD
S2140035506071EAE7042419484471E6E70829EED1C9
S2140035600824022903D0002B12D000220EE0621C91
S21400357092B212490E550234A4B200208854F2E7E3
S214003580611C9D5C0D48055501328CB2B242F7D3E2
S2140035900A4D220029000020094B9847631C9BB265
S2140035A0C2B22A550234000AC0B2E854A0B270BDB6
S2140035B00020FCE70020FAE7DC2500201425002088
S2140035C0251B000070B504000D0003781B0642782A
S2140035D012041343827812021343C2781343154A27
S2140035E0134002790A808179090242790A436A8087
S2140035F03A2A02D90120404270BDFF2169710D4967
S2140036008B4201D06879F7E7C3792B71931DC15CB3
S21400361009020532835C0B43EB8092B20100002066
S214003620054B9847EB889842ECD1237A6B710934A6
S214003630AC60E7E700FDFFFF251B000030B583B058
S21400364006AC2478D2B2C0B20094094CA047C4B2EB
S214003650002C02D1002003B030BD0120054DA84744
S214003660A1B20548054B98470020A8470120F2E77D
S214003670ED340000593400001425002039340000D1
S21400368030B583B006AC24780094164CA0470028CA
S21400369001D103B030BD144B98470400134B186893
S2140036A040221349134B984700250F4B98470100BB
S2140036B02000114B984701280BD80C4B1A68938DA5
S2140036C09BB29D42F1D0958DADB2074B9847040052
S2140036D0EBE7064B18680021084B98474020401B34
S2140036E0D7E7C0463D360000AD2E0000DC250020A2
S2140036F060250020F16E0000B92E0000116F00005A
S214003700F0B585B003900291140000270EE01B4B25
S2140037109B6818782FE0194B9B6818785A78120225
S21400372010439B781B04184325E00137022F20D84E
S2140037302000134B98470500A2B26B469889EBB25F
S2140037400093002302990F4EB0470028EDD00B4996
S2140037500D480E4B98470028E7D1012DD7D0029B85
S214003760012BD8D0054B9B6818785B781B02184352
S21400377001E00120404205B0F0BDC04654250020BF
S214003780D53400008136000060250020C5350000D5
S21400379030B583B00C0080B21423009300230022BF
S2140037A002210C4DA84700280ED00B490B480C4BA5
S2140037B0984700280BD1084B996814222000094B23
S2140037C09847002003B030BD01204042FAE70120B0
S2140037D04042F7E78136000054250020602500208F
S2140037E0C53500008DC3000030B585B00400012348
S2140037F019400E256D4429801820064B9847030073
S214003800A0B2DBB200932B0018220321024CA04783
S21400381005B030BDD53400003D36000010B584B08C
S21400382004000E236B4419800A4B994203D91A00F0
S2140038300E236B441A801E20074B98470300A0B245
S214003840DBB200930E236B441E220321034CA047D9
S21400385004B010BDFF030000D53400003D36000064
S21400386030B585B004000E256D4429802020064B17
S21400387098470300A0B2DBB200932B00202203215E
S214003880024CA04705B030BDD53400003D360000E0
S21400389030B585B004000E256D4429801920064BEE
S2140038A098470300A0B2DBB200932B001922032135
S2140038B0024CA04705B030BDD53400003D360000B0
S2140038C070B584B0060003A80170437082700024AF
S2140038D011E020001B30C0B2094B984703AB1B1900
S2140038E022001B3292B2B5B2C0B20090032128006B
S2140038F0044DA8470134022CEBD904B070BDC04675
S214003900D53400003D36000010B582B080B20023EA
S214003910009300220821024CA04702B010BDC0460A
S2140039203D36000070B50B4B18600B4C2100012093
S2140039300A4DA84721001E310220A8470223012273
S2140039400A210120064CA047022301220A21022058
S214003950A04770BDDC250020A02500209137000080
S214003960C138000070B5104B9847104B1B680024F8
S2140039700B2C10D8DA0703D55B080134E4B2F7E75E
S2140039800A4B1A680121A1400A431A601A79013AC3
S2140039901A71012500E00025054B9847002D00D13F
S2140039A0FF24200070BDC046ED87000028000020E0
S2140039B02D880000064A136A02210B431362012277
S2140039C0044B1A70034B1B78DB07FBD47047C046CA
S2140039D000040040000400420123037000234370EB
S2140039E08370C37070470000F0B583B006000C000B
S2140039F0164B98470500FF2826D030706378022BB8
S214003A000AD0E37801A90B70C71DFFB23800104B2F
S214003A10984738000F4B98470F202840A3781B0480
S214003A20FE22D2031340184363781B06C02292047A
S214003A301340184323789B06C022120513401843F0
S214003A407060002003B0F0BD1420FBE7653900006D
S214003A50A18F0000198F0000037801331B02F822A3
S214003A60520113401F2211401943034B198142682B
S214003A705A6000207047C046000400420022002A18
S214003A8006D00023002B0BD00023002BF9D1704763
S214003A9008490B7802200343DBB20B700132EEE7D5
S214003AA0044A527852B2002A01DB0133EAE70123C6
S214003AB0EBE7C0460018004000B583B01B4A936988
S214003AC040210B43936101A900230B700520184B7E
S214003AD098470520174B98470022002A06D0002357
S214003AE0002B0BD00023002BF9D116E012490B78DF
S214003AF001200343DBB20B700132EEE70E4A527828
S214003B0052B2002A01DB0133EAE70123EBE7990012
S214003B1000200A4A88500133DBB20F2BF7D9102257
S214003B20074B1A60074B984703B000BD00040040DF
S214003B30A18F0000198F000000180040E02500202B
S214003B4000E100E07D3A000010B51C4A146A8023AC
S214003B505B032343136203681B78DBB29A0704D522
S214003B603C221A4228D0052025E00160002117E0FB
S214003B70CB005B1A9B189B00C31800245C600132C4
S214003B80012AF5DDCA00521A9300C31800221A76DD
S214003B905A76DA609A761A615A61DA761A770131BD
S214003BA0012901DC0022EBE7054B18608022120594
S214003BB0044B1A60002010BD1C20FCE700040040E7
S214003BC0CC29002000E100E070B584B01400056840
S214003BD0288B2A78D2B204238B40184202D00520C4
S214003BE004B070BD134001D01C20F9E7E678002E23
S214003BF004D0E279002A01D01720F1E76279002A82
S214003C0036D080200006A279002A33D08022D20542
S214003C101043A27B002A2FD0802292051043E2791F
S214003C20002A2BD08022D2020243002E28D08020E9
S214003C30400202432079002824D08020400110430F
S214003C40627B002A20D0802212011043E27A002AEA
S214003C501CD0802252000243A07A002800D0802385
S214003C6013432278013AD2B2202A11D91720B7E797
S214003C701800C8E71A00CBE71A00CFE71A00D3E708
S214003C801800D6E71800DAE71A00DEE71A00E2E7BF
S214003C901206F8204005024013436278013AD2B279
S214003CA0202A01D917209BE7D204F82000040240FE
S214003CB01343227A082A01D9172091E7002A01D057
S214003CC0013AD2B292001C200240267B7601443094
S214003CD030400243667A0320304002431A438B008A
S214003CE0EB185A6003AA1A4B1B881380A07802AB05
S214003CF01870555C19002800164B98472800164B7C
S214003D00984701AB00225A7001219970DA70637CE3
S214003D10002B07D1237D002B0BD1E37D002B0FD189
S214003D2000205DE7237C01A90B70E07B0B4B9847D6
S214003D30F0E7E37C01A90B70A07C084B9847ECE702
S214003D40A37D01A90B70607D044B9847002047E7D0
S214003D5040CA0000A18F0000198F00008590000067
S214003D60F0B583B006000D0014000168088B0A78D1
S214003D70D2B288235B00AB40184202D0052003B0C5
S214003D80F0BD0423AB40134001D01C20F7E7E278D7
S214003D90002A58D08022D204E07C002855D080200B
S214003DA0800402432079002851D08020400402433A
S214003DB0207B00284DD0802000041043E27A002AA1
S214003DC049D08022D2031043A27A002A45D080220E
S214003DD092030243607A002841D0802040030243C9
S214003DE0207A00283DD0802000031043E279002A84
S214003DF039D08022D2021043A279002A35D0802200
S214003E00920202436079002831D0802040020243AB
S214003E10607B00282DD0802000021043A27B002A61
S214003E2029D0802252011043E27B002A25D080222E
S214003E300243A07C002822D010200243207D0128C7
S214003E401FD917209BE71A00A6E71800A9E7180055
S214003E50ADE71800B1E71A00B5E71A00B9E7180091
S214003E60BDE71800C1E71A00C5E71A00C9E7180041
S214003E70CDE71800D1E71A00D5E71A00D8E71800F2
S214003E80DBE7002800D020231A43A07D032303404D
S214003E90677DBF000C2038400343207C0002E027EB
S214003EA0FF0038400343607C4003C027FF013840D2
S214003EB003431A432F000837BF007A5001AB002295
S214003EC05A7001219970DA70A378002B0BD1A07D6F
S214003ED0EB00591B8A001100B218D076227C7618A7
S214003EE0327700204BE7637801A90B702078014BEE
S214003EF09847ECE78590000003689B7A5BB2002B3E
S214003F0001DB002070470120FCE7000070B50400CC
S214003F1005680822064B1A602000064B98470028C2
S214003F20FAD12B88022213439BB22B8070BDC04669
S214003F3000E100E0F93E000070B5040005680821C5
S214003F408023074AD1502000064B98470028FAD114
S214003F50C123AB712B722B88022293432B8070BD3A
S214003F6000E100E0F93E000070B504000568084B6B
S214003F7098470023A382E3822000064B9847002838
S214003F80FAD12B88012213439BB22B8070BDC0460A
S214003F90393F0000F93E0000F8B504000E00150099
S214003FA007682000104B98470028FAD12379002B89
S214003FB009D0012B16D1012D01D9172013E00635A3
S214003FC0AD00EE510FE0022D01D917200BE0074B94
S214003FD09E4201D9172006E0B6B20C356D00EE53AE
S214003FE0002000E01A20F8BDF93E0000FFFF0000A8
S214003FF0F8B504000E0007680B883B808B78002B12
S21400400028D0012B43D13B889BB23B80CB78002B3A
S21400401004D03B88802213439BB23B8000250DE0F2
S21400402020001D4B98470028FAD1AB1C9B009959DD
S2140040302A002000194B98470135EDB2002DEFD02D
S2140040403379002B25D07B888022D20113437B80D6
S21400405000201DE03B88042213439BB23B80CB78B4
S214004060002B01D0172013E000250DE020000A4B9E
S21400407098470028FAD1AB1C9B0099592A002000CB
S214004080064B98470135EDB2012DEFD9D8E717203A
S214004090F8BD0020FCE7C046F93E0000993F00004E
S2140040A030B583B00400150001600E4A93692021E4
S2140040B00B43936101A902230B7004200A4B984717
S2140040C004200A4B98472000094B9847AB78237189
S2140040D02B796371074B1C6029002000064B98471C
S2140040E003B030BD00040040A18F0000198F00000F
S2140040F0693F000020260020F13F000070B5040054
S2140041000D0006680379002B01D0152070BD200035
S214004110024B98470028FAD1B582F7E7F93E00002F
S21400412010B58000134BC2581468D18A938A194080
S214004130207AE379034058B2002806DBD8070FD56B
S214004140CB070AD40123237210BD4B0702D4802369
S2140041502372F9E713699847F9E793689847F1E7F8
S2140041609B07F1D58B0702D402232372ECE7D368B2
S2140041709847F9E72026002010B5022A10D00379C8
S214004180002B07D0012B19D1012A01D9172408E0EA
S214004190002406E0022A01D9172402E0002400E0E9
S2140041A00024002C08D1931C9B001950838A0121FF
S2140041B091400B439BB28382200010BD1724F0E78A
S2140041C010B5046802290BD001228A40032313404D
S2140041D0E371C38A01228A4013439BB2C38210BD97
S2140041E08023E371F5E7000010B50020014B9847E7
S2140041F010BDC046214100000368DB695B07FBD1A8
S21400420070470000F0B5D6464F464646C0B58AB061
S21400421007000C00036898461800834B9847060072
S21400422009AB80221A7000225A7001219970DA7048
S214004230E069256A00281FD009A9087002234B7080
S214004240000CC0B2794B9847002D1AD009A90D7002
S21400425002234B702D0CE8B2744B9847A38AFB8060
S214004260E38A3B81237E002B11D1714B9B789B0701
S21400427000D5A1E000230BE0002140466D4B984797
S214004280DAE7012140466B4B98470500DEE78023BE
S2140042902269002A00D01343A26813432421615CDC
S2140042A0002902D08021C9050B43A16A002900D04D
S2140042B00B432C21615C002903D1802189048A42AA
S2140042C002D18022120513432D22A25C002A02D0BE
S2140042D08022120413432E22A25C002A02D08022DF
S2140042E0D2031343424612681343424613608023A8
S2140042F05B00536030001430C0B24F4B98470790B5
S214004300FA21890023684B43994663684B439A46D3
S214004310278E4A4DA8474A4E4A4A4B4B0090019179
S214004320B047029003913800A847029A039BB04713
S214004330464F0022464BB847029003914846A8478E
S214004340029A039BB04702000B00424E0098019968
S214004350B047049005914B465800A84702000B0052
S2140043600292039304980599B84700223A4BB04747
S214004370029A039B394DA847394B98470600A26816
S21400438080239B049A4219D000240022FF2E41D994
S214004390402040280AD0FF2333401204FF2109049E
S2140043A00A401343240623434246D3600AB01CBC8B
S2140043B090469946A246F0BD802369E70098019989
S2140043C002000B00B84704000D0050461B4B9847F0
S2140043D00022244B1A4FB84702000B002000290089
S2140043E01E4CA04700221C4B1A4CA0471C4B98475B
S2140043F0041E06D0514607981B4B98470238021BEE
S214004400C4E753465900079B58180138164B98477F
S214004410421EBBE7FF2A01DD4020BAE7002A01DB87
S2140044200020B6E74020B4E7257400008590000021
S21400443000200041AD720000BD8F0000F9C00000F2
S21400444065B5000095D626E80B2E113EDDA80000C7
S2140044500000244065BA00000000F03FFDAE0000FA
S21400446091C0000000000840FD940000F0B583B045
S21400447007000D001600396008001E4B9847821C86
S2140044801430012393401C4A116A0B431362337B9A
S21400449001A90B70C4B22000184B98472000184B97
S2140044A09847307B0021174B98472B689B0702D50F
S2140044B01C2003B0F0BD2B68DB0701D50520F8E70C
S2140044C038680C4B984704000F49104B9847A400D7
S2140044D00F4BE75000233B767B767B83BB832522FE
S2140044E00021B9543B6214332B6031003800094B6D
S2140044F09847DEE72574000000040040A18F000006
S214004500198F000061720000B54900005D7400005C
S214004510B42900200542000003681A7E920706D5DB
S21400452002221A765B8B9B070BD5412070475A8B6D
S214004530520708D55968C02292020A435A601820CA
S214004540F4E70020F2E70020F0E702680023117E7F
S214004550C9070BD4117E890706D401339BB20189A3
S2140045608B42F4D3122002E0002000E000207047C7
S21400457010B5046862688023DB02134363606162DF
S214004580024B98470123237610BDC0464B450000DA
S214004590F8B5DE4657464E464546E0B505008B461E
S2140045A006684F8833681B01DB0F9A464B7A002B50
S2140045B029D17368584A134073605B461B7A002BF8
S2140045C025D15B461B885B00012213435A46527A6C
S2140045D09203134373622800504B98478046534615
S2140045E0002B03D05B465B88012B3CD073684A4A9D
S2140045F0134073604346002B3BD04346002B78D1D4
S2140046000023994654E0897A454B9847D1E75B46A4
S2140046101B885B005A46527A92031343802212028A
S2140046201343736228003D4B9847804673683A4AA6
S21400463013407360002811D04346002B59D15B46C7
S2140046401B881B0A782213439BB25B005A46527A99
S21400465092031343012213437362BCE72800314BD5
S21400466098478046E8E772688023DB02134373604E
S214004670C0E728002B4B98478046BEE75346002BE2
S21400468001D0012C23D02800274B98474B465F1CAF
S214004690BFB22823F35C5A46526849465354280052
S2140046A01E4B98478046B94627004346002B14D138
S2140046B07C1EA4B2002F10D0738B9B0629D5EB7AF4
S2140046C0002BE0D05346002BD8D1002CD6D17268F0
S2140046D08023DB0213437360E6E7AB7A002B0FD12F
S2140046E02800114B98475B465B682822B25C494617
S2140046F05A5440463CBC90469946A246AB46F8BD46
S2140047002800094B98477268C0239B0213437360C6
S214004710E6E741239846ECE7FFFFFBFF4B4500002A
S2140047207145000019450000F9410000F0B5DE466D
S21400473057464646C0B582B001908A4607684D88FF
S214004740354B984753465B7A002B39D17B68334A02
S21400475013407B6053461B7A002B37D053461B888A
S2140047605B005246527A920313438022120213438E
S2140047707B6201982A4B9847041E30D0002C38D113
S21400478000266B1E9BB29B46002D2ED07B8B9B0675
S2140047903FD5019C2000204B9847751CABB298462D
S2140047A053465B689A5D2823FA5420001C4B9847B2
S2140047B0041E1AD17B8B5D465B0715D44646E0E7A0
S2140047C05346997A0198174B9847BFE753461B887C
S2140047D05B005246527A920313437B62C9E7019804
S2140047E0114B98470400C9E71E24019B9B7A002BB7
S2140047F006D1200002B01CBC90469A46A346F0BDE7
S2140048000198054B98477A68C0239B0213437B6048
S214004810EFE74124EDE7C046F9410000FFFFFBFF4C
S2140048204B450000714500001945000010B5838B0C
S2140048309BB2002B01D0052010BD01338372C372DA
S214004840014B9847F8E7C0469145000010B5838BAA
S2140048509BB2002B01D0052010BD01338372C372BA
S214004860014B9847F8E7C0462D4700000368DB6910
S2140048705B07FBD17047000070B50400066832681D
S214004880458B838BED1AADB2838B013B9BB2838342
S21400489013011DD5C37A002B03D0838B9BB2012B4B
S2140048A010D0A38B9BB2002B02D1A37A002B1CD175
S2140048B02000124B9847236A5D192823F35CDBB26D
S2140048C02B7070BD72688023DB0213437360E8E7C9
S2140048D0C37A002BE5D0838B9BB2002BE1D17268A4
S2140048E08023DB0213437360DBE72000034B98470B
S2140048F07268C0239B0213437360D9E76D480000BB
S21400490070B5040005686B8B5B0703D51E22252354
S214004910C25470BD468B838BF61AB6B2838B013BAE
S2140049209BB28383044B9847236A9E193378DBB285
S2140049302822AB54EDE7C0466D48000070B5040071
S21400494005682B7EDB0707D501232B766B8B9B0731
S2140049500AD541222523C254A38B9BB26383252309
S214004960E35C052B13D070BD6B8B5B07F4D5182268
S2140049702523C25400238383837A002BECD00A4B72
S21400498098476A68C0239B0213436B60E4E71F33B3
S214004990E35C002B03D02000044B9847E3E720009D
S2140049A0034B9847DFE7C0466D4800007948000093
S2140049B00149000070B58000594BC45825682B6823
S2140049C01B01DA0F637E267E1E40638B9BB2002B94
S2140049D003D1A38B9BB2002B20D1638B9BB2002B01
S2140049E007D0A38B9BB2002B03D12533E35C052BAA
S2140049F03AD0638B9BB2002B13D0A38B9BB2002BB9
S214004A000FD06B8B9B064ED4002A03D0A38B9BB291
S214004A10012B48D041222523E25402E02000414BDE
S214004A209847638B9BB2002B07D0A38B9BB2002BBF
S214004A3003D12533E35C052B41D02523E35C052B0E
S214004A4011D02523E35C002B0DD003232B75002308
S214004A506383A3832533E35C412B02D0A37A002B28
S214004A6051D1730758D470BD1F33E35C002BC0D1FF
S214004A7003332B750023638325330022E254A37A85
S214004A80002B07D101232B76F307CAD5E368200055
S214004A909847C6E72000244B98476A68C0239B02C5
S214004AA013436B60F0E72423E35C002B03D1200064
S214004AB01E4B9847B5E720001D4B9847B1E71F33BC
S214004AC0E35C012BB9D12B7E9B0701D502232B7605
S214004AD003232B750023638325330022E254B30798
S214004AE003D52423E35C012B09D0F307A5D52423A3
S214004AF0E35C002BA1D1E368200098479DE723697B
S214004B002000984799E72000074B98476A68E023FB
S214004B10DB0213436B60A4E7636920009847A2E7B3
S214004B20B42900203D4900006D48000001490000FE
S214004B307948000070B58000164BC5582B689C7BE2
S214004B402A7E6B7E14401C40E30706D4A3070BD4D2
S214004B50E30610D4A30615D470BD2800AB689847AA
S214004B6001232A689373F1E72800EB68984702232D
S214004B702A689373ECE728002B69984710232A6865
S214004B809373E7E728006B6998472B6820229A738F
S214004B90E2E7C0462426002010B50020014B9847C7
S214004BA010BDC046354B000010B50120014B98479C
S214004BB010BDC046354B000010B50220014B98478B
S214004BC010BDC046354B000030B585B001AA094B74
S214004BD032CB32C20023022B08D89A0001A95258C1
S214004BE0824201D00133F6E7D8B200E0002005B0DB
S214004BF030BDC04644CA0000F0B587B004000D00C2
S214004C00160008008A4B9847070005AA894B998921
S214004C101180997B91701A6903929A8A03AB9A80E5
S214004C20002305E09A1C9200002111510133DBB2EB
S214004C30032BF7D9002323766376BB007E4A9C506D
S214004C402560B378082B06D023712B88DB0706D5A2
S214004C50052007B0F0BDFA07F6D41720F9E7EB7B7E
S214004C60DB0601D51C20F4E72B889B0701D51C200A
S214004C70EFE7337C002B46D1337F002B4FD17B00F0
S214004C8003AA9B5A6D4A116A0B431362B378082B2A
S214004C9055D001A933780B7005ABDF5D3800684B43
S214004CA098473800674B9847B378B17932890B43F9
S214004CB01A43B3881A437378002B02D080231B0153
S214004CC01A432368DB7B5BB2002BFADB2A80737BFC
S214004CD0002B3DD10022B37B002B02D001231A43C8
S214004CE0D2B22368DB7B5BB2002BFADBFF232B718F
S214004CF0002A05D02368DB7B5BB2002BFADB6A71E7
S214004D00B27A002328E002A901238B700022CA7021
S214004D10327E0A704B70307D4B4B9847ACE702A949
S214004D2001238B700022CA702432B21812780A70DF
S214004D304B701F33F3181878434B98479FE77B1C3C
S214004D405B0003AA9B5A3D4A116A0B431362A0E715
S214004D500422C0E70133DBB2012B08D8F118C97A68
S214004D600029F7D0102199400A43D2B2F2E723680F
S214004D70DB7B5BB2002BFADBAA712268D37B5BB2CB
S214004D80002BFADB2379042B05D0082B3AD0002B16
S214004D9022D017205DE7D37B5BB2002BFBDB2823FA
S214004DA0F35C2B742368DB7B5BB2002BFADB2923D6
S214004DB0F35C2B752368DB7B5BB2002BFADB2A23C4
S214004DC0F35C2B762368DB7B5BB2002BFADB2B23B2
S214004DD0F35C6B7600203CE7D37B5BB2002BFBDBFF
S214004DE0338D2B822368DB7B5BB2002BFADB738D63
S214004DF02B832368DB7B5BB2002BFADBB38D6B83E4
S214004E00002026E7D37B5BB2002BFBDBB36A2B616B
S214004E102368DB7B5BB2002BFADBF36AAB612368AB
S214004E20DB7B5BB2002BFADB336BEB61002010E719
S214004E30C94B000044CA000024260020000400409D
S214004E40A18F0000198F00008590000010B584B077
S214004E50284B1B680393284B1B78834207D00028F7
S214004E6007D1254B1B78002B23D1234B187004B099
S214004E7010BD03AB1B5C214AD25CFF2A00D1FEE7C3
S214004E80EFF3108251424A41019272B6BFF35F8F30
S214004E9000211B4A1170019C1849CA5C0132CA5491
S214004EA0002CDED00122164B1A70BFF35F8F62B65D
S214004EB0D7E703AAD35C114AD25C002A00D1FEE7EA
S214004EC0EFF3108251424A41029272B6BFF35F8FEF
S214004ED000210B4A1170029C0849CA5C013ACA5468
S214004EE0002CC2D00122064B1A70BFF35F8F62B649
S214004EF0BBE7C0465CCA0000040F0020D82900208B
S214004F000801002000280DD080280DD00F23034074
S214004F105B00C0091818023883001818830003487D
S214004F20C01870470020FCE70020FAE78C0E00202F
S214004F300A4B19780A4A117059785170D9780902C3
S214004F4098780918518059790902187909189180BA
S214004F50D97909029B79CB18D38070477028002036
S214004F6058280020F8B5CE46474680B50400837919
S214004F70994618002C4B984705000F274B461F40B4
S214004F80038A98466688C3689C466644C6608468FA
S214004F90A6422ED0A4B2B1B2641AA4B2234B9C424D
S214004FA007D91C0041461800214B984789B2641A5D
S214004FB0A4B2AB7C9B0708D5414620001D4B984702
S214004FC089B2002913D0002200E000225200AB7CF8
S214004FD002218B431343AB746A689219230039008D
S214004FE01548164CA0470CBC90469946F8BD0122C1
S214004FF0ECE7837C9B070BD4837C0122934383746A
S2140050000368002BEFD04A46310000209847EAE7B5
S214005010837C0222934383744268921900233900EA
S2140050200548064CA047DEE7054F0000FF1F0000BE
S214005030DD97000009960000F02600206567000056
S214005040F0B5DE4657464E464546E0B583B0050009
S21400505087793800374B984704000F263E40038A6E
S21400506099462B889846837C5B071BD4E3684344A9
S214005070E360A1688B4200D9E160AB88984525D0F3
S214005080A37C01229343A3742368002B03D0E1681A
S2140050903A000020984703B03CBC90469946A2468A
S2140050A0AB46F0BD4368C268944663449B46731E95
S2140050B09B01214A9A469244494680681F4B98476E
S2140050C00A00514658461E4B9847CFE7E368984675
S2140050D09942D5D08DB26A46D380D1886D1AADB2CA
S2140050E0184B9D4217D91D0049461800164B984785
S2140050F08BB2EB1A9BB24B4515D2A37C042213430A
S214005100A374721E92010C4BD2184B4631000F4806
S2140051100F4CA047BFE749462800084B98478BB27C
S214005120EB1A9BB2E7E76268424431000748084C36
S214005130A047B0E7054F0000302600200996000083
S2140051408DC30000FF1F0000DD970000F026002042
S214005150B567000010B50623CB56002B03DB08000E
S214005160034B984710BD0800024B9847FAE7C04625
S21400517041500000654F000010B5084B1B78022B0D
S21400518002D0032B04D010BD0422044B1A70FAE799
S21400519081790348034B9847F5E7C0468A0E0020FE
S2140051A0F0260020BD66000010B50522054B1A70DB
S2140051B0054C80212000054B984700212000044B19
S2140051C0984710BD8A0E0020F0260020BD6600001D
S2140051D0E366000070B5084C06212000074DA8477E
S2140051E004212000A84702212000054B98470220F2
S2140051F0044B984770BDC046F0260020E5610000CD
S214005200C56100004D4E000070B5124B9B8C9B068E
S2140052101AD4104BDA68D0231340D02BF9D10E4C99
S214005220022120000D4B9847042120000C4DA84772
S2140052300C4A062120000C4B984706212000A84760
S21400524003200A4B984770BD024BDB68DB06FBD594
S214005250E5E7C04600080040F0260020E5610000B3
S214005260C5610000D5510000A56100004D4E00004C
S21400527010B5064C04212000054B9847022120005B
S214005280044B98470120044B984710BDF026002099
S214005290E5610000C56100004D4E000030B583B0EA
S2140052A0040001AD28001B4B984703236B702900B0
S2140052B02000194B984719492000194B9847194B5D
S2140052C0022200212000184DA847184B002200217A
S2140052D02000A847164B012200212000A8470222E2
S2140052E000212000134DA847002200212000A847D7
S2140052F0012200212000A84721680B890E4A1A4087
S2140053008023DB0013430B8100220C4B1A7003B082
S21400531030BDC046196400002964000070280020D3
S214005320016800009954000001620000495800001E
S214005330CD53000051620000FFF3FFFF8A0E0020ED
S21400534010B50400044B984780232268937220000F
S214005350024B984710BDC046918400009D52000045
S21400536010B50322074B1A70074C08492000084B5B
S2140053709847084B9A68002300212000064CA04757
S21400538010BDC0468A0E0020F0260020702800209F
S21400539001680000582800206567000010B5074B1C
S2140053A01B78012B02D0042B03D010BD044B98476A
S2140053B0FBE781790348044B9847F6E78A0E0020FE
S2140053C061530000F0260020BD66000010B50623DD
S2140053D0CB56002B03DB0800034B984710BD080094
S2140053E0024B9847FAE7C046795100009D530000EB
S2140053F070B5204B9C89204B1B88E41AA4B2002C65
S21400540018D11E4A11885B189BB21380194AD2889D
S214005410934223D01A4B1B78002B1FD1154B5B6988
S214005420002B07D09847002804D00022124B1A8081
S214005430104B9C893F2C19D90022114B1A7040241E
S2140054400C4B9A680C4D2B88D218230000210D486F
S2140054500D4EB0472B88E4182C8070BD04220B4BF1
S2140054601A700B4907480B4B9847F6E70122044B86
S2140054701A70E5E758280020860E0020880E0020C7
S214005480840E0020F0260020656700008A0E0020AB
S214005490702800200168000010B50C00234B1B7814
S2140054A0002B07D0224B1B69002B00D09847002208
S2140054B01E4B1A702388082B02D01E4B984710BD2F
S2140054C01D4B98471D4B9847002817D0184B1B7844
S2140054D05BB2002B15DB164BDB88002B22D000239B
S2140054E0174A1380174A13800122104B1A70402364
S2140054F0154A00211548164CA047E0E70D4B984783
S214005500DDE700230E4A13800E4A13800222074B63
S2140055101A7040230C4A00210C480D4CA0470D4B36
S2140055209847CCE70C4B9847C9E7C0468A0E002040
S21400553058280020A9510000314F0000B186000015
S214005540880E0020860E002070280020F0260020FE
S214005550B5670000F15300006153000010B5014B21
S214005560984710BD7986000010B5040001000A486F
S2140055700A4B984720000A4B9847837CDB070AD5DE
S214005580837C0122934383740368002B03D0C16895
S21400559022000120984710BDF02600205966000022
S2140055A0054F000000207047024B1B68188A8004D5
S2140055B0400D7047F0260020024B1B68188A80B208
S2140055C07047C046F0260020F0B583B0040001AD59
S2140055D028000D4B98470F27274020000B4B984775
S2140055E02C700023EB700A4E29003000094B9847B8
S2140055F0002239003000084B984700222100300076
S214005600064B984703B0F0BD1964000069550000CA
S214005610F02600202964000029620000356300009F
S214005620F0B583B004000F00150001AE3000374B14
S21400563098473470082D10D8002201AB5A7020000D
S214005640334B9847058203213940012934D002297B
S21400565040D0032942D000203AE0102D03D8012282
S21400566001AB5A70EBE7202D03D8022201AB5A702B
S214005670E5E7402D03D8032201AB5A70DFE7802D03
S21400568003D8042201AB5A70D9E780235B009D4201
S21400569003D8052201AB5A70D1E780239B009D42B8
S2140056A003D8062201AB5A70C9E71A4B9D422BD885
S2140056B0072201AB5A70C2E7022201ABDA700F254F
S2140056C0254001A91448154B984700280AD0002009
S2140056D003B0F0BD032201ABDA70F0E7042201ABA1
S2140056E0DA70ECE70C4E0E4B0022290030000D4D10
S2140056F0A8470022210030000B4DA84701222100B8
S2140057003000A8470120E3E70020E1E71964000025
S214005710054F0000FF030000F0260020296400006B
S21400572055510000016200005162000010B50100F2
S2140057300148024B984710BDF02600208F660000F7
S21400574010B504000F230340032B01D9002010BD21
S21400575001000448044B98472000044B984701205A
S214005760F5E7C046F0260020BD660000695500003B
S21400577070B505882A4B9B892A4A14886219934279
S21400578001DA1D1BADB2264B986800192A0026497F
S214005790264B98472C19A4B2224B1C80402D0AD0C9
S2140057A01F4B9C815B69002B02D09847002814D0C1
S2140057B01F4B984770BD1A4BDA881E4B1B881B1967
S2140057C09A42EDDD164B9B899C420CD04023164A2C
S2140057D000211948194CA047ECE70522184B1A700F
S2140057E0184B9847E6E70E4B5B69002B0BD09847A3
S2140057F000280FD00F490B4A0B8810881B180B8007
S21400580000231380E2E705220D4B1A7000200D4B93
S2140058109847CFE705220A4B1A700A4B9847C9E704
S21400582058280020860E0020702800208DC3000017
S21400583061530000880E0020F0260020B5670000A7
S2140058408A0E00204157000010B50B4B1B78012B29
S2140058500AD0022B0CD0094B1B69002B00D09847AE
S2140058600022054B1A7010BD0800054B9847FAE752
S214005870044B9847F7E7C0468A0E002058280020B9
S21400588071570000F153000070B504000F23034069
S214005890032B01D9002070BD094B98470500210055
S2140058A00848094B9847AB7CDB0701D40120F2E798
S2140058B0AB7C01229343AB742B6898470120EAE740
